{
  "_format": "hh-sol-artifact-1",
  "contractName": "GachaNFT",
  "sourceName": "contracts/GachaNFT.sol",
  "abi": [
    {
      "inputs": [
        {
          "internalType": "string",
          "name": "_baseUri",
          "type": "string"
        },
        {
          "internalType": "uint256[48]",
          "name": "_supplyCaps",
          "type": "uint256[48]"
        }
      ],
      "stateMutability": "nonpayable",
      "type": "constructor"
    },
    {
      "inputs": [
        {
          "internalType": "address",
          "name": "sender",
          "type": "address"
        },
        {
          "internalType": "uint256",
          "name": "balance",
          "type": "uint256"
        },
        {
          "internalType": "uint256",
          "name": "needed",
          "type": "uint256"
        },
        {
          "internalType": "uint256",
          "name": "tokenId",
          "type": "uint256"
        }
      ],
      "name": "ERC1155InsufficientBalance",
      "type": "error"
    },
    {
      "inputs": [
        {
          "internalType": "address",
          "name": "approver",
          "type": "address"
        }
      ],
      "name": "ERC1155InvalidApprover",
      "type": "error"
    },
    {
      "inputs": [
        {
          "internalType": "uint256",
          "name": "idsLength",
          "type": "uint256"
        },
        {
          "internalType": "uint256",
          "name": "valuesLength",
          "type": "uint256"
        }
      ],
      "name": "ERC1155InvalidArrayLength",
      "type": "error"
    },
    {
      "inputs": [
        {
          "internalType": "address",
          "name": "operator",
          "type": "address"
        }
      ],
      "name": "ERC1155InvalidOperator",
      "type": "error"
    },
    {
      "inputs": [
        {
          "internalType": "address",
          "name": "receiver",
          "type": "address"
        }
      ],
      "name": "ERC1155InvalidReceiver",
      "type": "error"
    },
    {
      "inputs": [
        {
          "internalType": "address",
          "name": "sender",
          "type": "address"
        }
      ],
      "name": "ERC1155InvalidSender",
      "type": "error"
    },
    {
      "inputs": [
        {
          "internalType": "address",
          "name": "operator",
          "type": "address"
        },
        {
          "internalType": "address",
          "name": "owner",
          "type": "address"
        }
      ],
      "name": "ERC1155MissingApprovalForAll",
      "type": "error"
    },
    {
      "inputs": [
        {
          "internalType": "uint256",
          "name": "tokenId",
          "type": "uint256"
        }
      ],
      "name": "InvalidTokenId",
      "type": "error"
    },
    {
      "inputs": [],
      "name": "NotMinter",
      "type": "error"
    },
    {
      "inputs": [
        {
          "internalType": "address",
          "name": "owner",
          "type": "address"
        }
      ],
      "name": "OwnableInvalidOwner",
      "type": "error"
    },
    {
      "inputs": [
        {
          "internalType": "address",
          "name": "account",
          "type": "address"
        }
      ],
      "name": "OwnableUnauthorizedAccount",
      "type": "error"
    },
    {
      "inputs": [
        {
          "internalType": "uint256",
          "name": "tokenId",
          "type": "uint256"
        },
        {
          "internalType": "uint256",
          "name": "requested",
          "type": "uint256"
        },
        {
          "internalType": "uint256",
          "name": "remaining",
          "type": "uint256"
        }
      ],
      "name": "SupplyCapExceeded",
      "type": "error"
    },
    {
      "inputs": [],
      "name": "ZeroAmount",
      "type": "error"
    },
    {
      "anonymous": false,
      "inputs": [
        {
          "indexed": true,
          "internalType": "address",
          "name": "account",
          "type": "address"
        },
        {
          "indexed": true,
          "internalType": "address",
          "name": "operator",
          "type": "address"
        },
        {
          "indexed": false,
          "internalType": "bool",
          "name": "approved",
          "type": "bool"
        }
      ],
      "name": "ApprovalForAll",
      "type": "event"
    },
    {
      "anonymous": false,
      "inputs": [
        {
          "indexed": true,
          "internalType": "address",
          "name": "to",
          "type": "address"
        },
        {
          "indexed": true,
          "internalType": "uint256",
          "name": "tokenId",
          "type": "uint256"
        },
        {
          "indexed": false,
          "internalType": "uint256",
          "name": "amount",
          "type": "uint256"
        }
      ],
      "name": "CardMinted",
      "type": "event"
    },
    {
      "anonymous": false,
      "inputs": [
        {
          "indexed": true,
          "internalType": "address",
          "name": "minter",
          "type": "address"
        },
        {
          "indexed": false,
          "internalType": "bool",
          "name": "authorised",
          "type": "bool"
        }
      ],
      "name": "MinterUpdated",
      "type": "event"
    },
    {
      "anonymous": false,
      "inputs": [
        {
          "indexed": true,
          "internalType": "address",
          "name": "previousOwner",
          "type": "address"
        },
        {
          "indexed": true,
          "internalType": "address",
          "name": "newOwner",
          "type": "address"
        }
      ],
      "name": "OwnershipTransferred",
      "type": "event"
    },
    {
      "anonymous": false,
      "inputs": [
        {
          "indexed": true,
          "internalType": "address",
          "name": "operator",
          "type": "address"
        },
        {
          "indexed": true,
          "internalType": "address",
          "name": "from",
          "type": "address"
        },
        {
          "indexed": true,
          "internalType": "address",
          "name": "to",
          "type": "address"
        },
        {
          "indexed": false,
          "internalType": "uint256[]",
          "name": "ids",
          "type": "uint256[]"
        },
        {
          "indexed": false,
          "internalType": "uint256[]",
          "name": "values",
          "type": "uint256[]"
        }
      ],
      "name": "TransferBatch",
      "type": "event"
    },
    {
      "anonymous": false,
      "inputs": [
        {
          "indexed": true,
          "internalType": "address",
          "name": "operator",
          "type": "address"
        },
        {
          "indexed": true,
          "internalType": "address",
          "name": "from",
          "type": "address"
        },
        {
          "indexed": true,
          "internalType": "address",
          "name": "to",
          "type": "address"
        },
        {
          "indexed": false,
          "internalType": "uint256",
          "name": "id",
          "type": "uint256"
        },
        {
          "indexed": false,
          "internalType": "uint256",
          "name": "value",
          "type": "uint256"
        }
      ],
      "name": "TransferSingle",
      "type": "event"
    },
    {
      "anonymous": false,
      "inputs": [
        {
          "indexed": false,
          "internalType": "string",
          "name": "value",
          "type": "string"
        },
        {
          "indexed": true,
          "internalType": "uint256",
          "name": "id",
          "type": "uint256"
        }
      ],
      "name": "URI",
      "type": "event"
    },
    {
      "inputs": [],
      "name": "TOTAL_CARDS",
      "outputs": [
        {
          "internalType": "uint256",
          "name": "",
          "type": "uint256"
        }
      ],
      "stateMutability": "view",
      "type": "function"
    },
    {
      "inputs": [
        {
          "internalType": "address",
          "name": "account",
          "type": "address"
        },
        {
          "internalType": "uint256",
          "name": "id",
          "type": "uint256"
        }
      ],
      "name": "balanceOf",
      "outputs": [
        {
          "internalType": "uint256",
          "name": "",
          "type": "uint256"
        }
      ],
      "stateMutability": "view",
      "type": "function"
    },
    {
      "inputs": [
        {
          "internalType": "address[]",
          "name": "accounts",
          "type": "address[]"
        },
        {
          "internalType": "uint256[]",
          "name": "ids",
          "type": "uint256[]"
        }
      ],
      "name": "balanceOfBatch",
      "outputs": [
        {
          "internalType": "uint256[]",
          "name": "",
          "type": "uint256[]"
        }
      ],
      "stateMutability": "view",
      "type": "function"
    },
    {
      "inputs": [
        {
          "internalType": "address",
          "name": "account",
          "type": "address"
        },
        {
          "internalType": "address",
          "name": "operator",
          "type": "address"
        }
      ],
      "name": "isApprovedForAll",
      "outputs": [
        {
          "internalType": "bool",
          "name": "",
          "type": "bool"
        }
      ],
      "stateMutability": "view",
      "type": "function"
    },
    {
      "inputs": [
        {
          "internalType": "uint256",
          "name": "tokenId",
          "type": "uint256"
        }
      ],
      "name": "isSoldOut",
      "outputs": [
        {
          "internalType": "bool",
          "name": "",
          "type": "bool"
        }
      ],
      "stateMutability": "view",
      "type": "function"
    },
    {
      "inputs": [
        {
          "internalType": "uint256",
          "name": "",
          "type": "uint256"
        }
      ],
      "name": "maxSupply",
      "outputs": [
        {
          "internalType": "uint256",
          "name": "",
          "type": "uint256"
        }
      ],
      "stateMutability": "view",
      "type": "function"
    },
    {
      "inputs": [
        {
          "internalType": "address",
          "name": "to",
          "type": "address"
        },
        {
          "internalType": "uint256",
          "name": "tokenId",
          "type": "uint256"
        },
        {
          "internalType": "uint256",
          "name": "amount",
          "type": "uint256"
        }
      ],
      "name": "mintCard",
      "outputs": [],
      "stateMutability": "nonpayable",
      "type": "function"
    },
    {
      "inputs": [
        {
          "internalType": "address",
          "name": "to",
          "type": "address"
        },
        {
          "internalType": "uint256[]",
          "name": "tokenIds",
          "type": "uint256[]"
        },
        {
          "internalType": "uint256[]",
          "name": "amounts",
          "type": "uint256[]"
        }
      ],
      "name": "mintCardBatch",
      "outputs": [],
      "stateMutability": "nonpayable",
      "type": "function"
    },
    {
      "inputs": [
        {
          "internalType": "address",
          "name": "",
          "type": "address"
        }
      ],
      "name": "minters",
      "outputs": [
        {
          "internalType": "bool",
          "name": "",
          "type": "bool"
        }
      ],
      "stateMutability": "view",
      "type": "function"
    },
    {
      "inputs": [],
      "name": "owner",
      "outputs": [
        {
          "internalType": "address",
          "name": "",
          "type": "address"
        }
      ],
      "stateMutability": "view",
      "type": "function"
    },
    {
      "inputs": [
        {
          "internalType": "uint256",
          "name": "tokenId",
          "type": "uint256"
        }
      ],
      "name": "remainingSupply",
      "outputs": [
        {
          "internalType": "uint256",
          "name": "",
          "type": "uint256"
        }
      ],
      "stateMutability": "view",
      "type": "function"
    },
    {
      "inputs": [],
      "name": "renounceOwnership",
      "outputs": [],
      "stateMutability": "nonpayable",
      "type": "function"
    },
    {
      "inputs": [
        {
          "internalType": "address",
          "name": "from",
          "type": "address"
        },
        {
          "internalType": "address",
          "name": "to",
          "type": "address"
        },
        {
          "internalType": "uint256[]",
          "name": "ids",
          "type": "uint256[]"
        },
        {
          "internalType": "uint256[]",
          "name": "values",
          "type": "uint256[]"
        },
        {
          "internalType": "bytes",
          "name": "data",
          "type": "bytes"
        }
      ],
      "name": "safeBatchTransferFrom",
      "outputs": [],
      "stateMutability": "nonpayable",
      "type": "function"
    },
    {
      "inputs": [
        {
          "internalType": "address",
          "name": "from",
          "type": "address"
        },
        {
          "internalType": "address",
          "name": "to",
          "type": "address"
        },
        {
          "internalType": "uint256",
          "name": "id",
          "type": "uint256"
        },
        {
          "internalType": "uint256",
          "name": "value",
          "type": "uint256"
        },
        {
          "internalType": "bytes",
          "name": "data",
          "type": "bytes"
        }
      ],
      "name": "safeTransferFrom",
      "outputs": [],
      "stateMutability": "nonpayable",
      "type": "function"
    },
    {
      "inputs": [
        {
          "internalType": "address",
          "name": "operator",
          "type": "address"
        },
        {
          "internalType": "bool",
          "name": "approved",
          "type": "bool"
        }
      ],
      "name": "setApprovalForAll",
      "outputs": [],
      "stateMutability": "nonpayable",
      "type": "function"
    },
    {
      "inputs": [
        {
          "internalType": "string",
          "name": "_newUri",
          "type": "string"
        }
      ],
      "name": "setBaseUri",
      "outputs": [],
      "stateMutability": "nonpayable",
      "type": "function"
    },
    {
      "inputs": [
        {
          "internalType": "address",
          "name": "_minter",
          "type": "address"
        },
        {
          "internalType": "bool",
          "name": "_authorised",
          "type": "bool"
        }
      ],
      "name": "setMinter",
      "outputs": [],
      "stateMutability": "nonpayable",
      "type": "function"
    },
    {
      "inputs": [
        {
          "internalType": "bytes4",
          "name": "interfaceId",
          "type": "bytes4"
        }
      ],
      "name": "supportsInterface",
      "outputs": [
        {
          "internalType": "bool",
          "name": "",
          "type": "bool"
        }
      ],
      "stateMutability": "view",
      "type": "function"
    },
    {
      "inputs": [
        {
          "internalType": "uint256",
          "name": "",
          "type": "uint256"
        }
      ],
      "name": "totalMinted",
      "outputs": [
        {
          "internalType": "uint256",
          "name": "",
          "type": "uint256"
        }
      ],
      "stateMutability": "view",
      "type": "function"
    },
    {
      "inputs": [
        {
          "internalType": "address",
          "name": "newOwner",
          "type": "address"
        }
      ],
      "name": "transferOwnership",
      "outputs": [],
      "stateMutability": "nonpayable",
      "type": "function"
    },
    {
      "inputs": [
        {
          "internalType": "uint256",
          "name": "tokenId",
          "type": "uint256"
        }
      ],
      "name": "uri",
      "outputs": [
        {
          "internalType": "string",
          "name": "",
          "type": "string"
        }
      ],
      "stateMutability": "view",
      "type": "function"
    }
  ],
  "bytecode": "0x608060405234801562000010575f80fd5b50604051620020f3380380620020f38339810160408190526200003391620001ee565b33826200004081620000d3565b506001600160a01b0381166200006f57604051631e4fbdf760e01b81525f600482015260240160405180910390fd5b6200007a81620000e5565b505f5b6030811015620000ca578181603081106200009c576200009c620002b2565b602002015160045f620000b1846001620002c6565b815260208101919091526040015f20556001016200007d565b50505062000442565b6002620000e1828262000376565b5050565b600380546001600160a01b038381166001600160a01b0319831681179093556040519116919082907f8be0079c531659141344cd1fd0a4f28419497f9722a3daafe3b4186f6b6457e0905f90a35050565b634e487b7160e01b5f52604160045260245ffd5b604051601f8201601f191681016001600160401b038111828210171562000175576200017562000136565b604052919050565b5f82601f8301126200018d575f80fd5b6040516106008082016001600160401b0381118382101715620001b457620001b462000136565b60405283018185821115620001c7575f80fd5b845b82811015620001e3578051825260209182019101620001c9565b509195945050505050565b5f80610620838503121562000201575f80fd5b82516001600160401b038082111562000218575f80fd5b818501915085601f8301126200022c575f80fd5b81518181111562000241576200024162000136565b6020915062000259601f8201601f191683016200014a565b81815287838386010111156200026d575f80fd5b5f5b828110156200028c5784810184015182820185015283016200026f565b505f8383830101528095505050620002a7868287016200017d565b925050509250929050565b634e487b7160e01b5f52603260045260245ffd5b80820180821115620002e657634e487b7160e01b5f52601160045260245ffd5b92915050565b600181811c908216806200030157607f821691505b6020821081036200032057634e487b7160e01b5f52602260045260245ffd5b50919050565b601f8211156200037157805f5260205f20601f840160051c810160208510156200034d5750805b601f840160051c820191505b818110156200036e575f815560010162000359565b50505b505050565b81516001600160401b0381111562000392576200039262000136565b620003aa81620003a38454620002ec565b8462000326565b602080601f831160018114620003e0575f8415620003c85750858301515b5f19600386901b1c1916600185901b1785556200043a565b5f85815260208120601f198616915b828110156200041057888601518255948401946001909101908401620003ef565b50858210156200042e57878501515f19600388901b60f8161c191681555b505060018460011b0185555b505050505050565b611ca380620004505f395ff3fe608060405234801561000f575f80fd5b5060043610610131575f3560e01c8063869f7594116100b4578063cf456ae711610079578063cf456ae71461029b578063e985e9c5146102ae578063f0ba9cb8146102e9578063f242432a146102fc578063f2fde38b1461030f578063f46eccc414610322575f80fd5b8063869f75941461021c5780638da5cb5b1461023b5780639d7f4ebf14610256578063a0bcfc7f14610275578063a22cb46514610288575f80fd5b806347fda41a116100fa57806347fda41a146101c65780634e1273f4146101d9578063715018a6146101f957806372c4d0ff146102015780637d41ebb014610214575f80fd5b8062fdd58e1461013557806301ffc9a71461015b5780630dfe246d1461017e5780630e89341c146101935780632eb2c2d6146101b3575b5f80fd5b6101486101433660046113c0565b610344565b6040519081526020015b60405180910390f35b61016e6101693660046113fd565b61036b565b6040519015158152602001610152565b61019161018c366004611467565b6103ba565b005b6101a66101a13660046114e2565b610600565b6040516101529190611546565b6101916101c1366004611698565b61063b565b6101486101d43660046114e2565b61065a565b6101ec6101e736600461173b565b610698565b604051610152919061182f565b610191610763565b61019161020f366004611841565b610776565b610148603081565b61014861022a3660046114e2565b60046020525f908152604090205481565b6003546040516001600160a01b039091168152602001610152565b6101486102643660046114e2565b60056020525f908152604090205481565b610191610283366004611871565b61084f565b6101916102963660046118dd565b610899565b6101916102a93660046118dd565b6108a4565b61016e6102bc366004611916565b6001600160a01b039182165f90815260016020908152604080832093909416825291909152205460ff1690565b61016e6102f73660046114e2565b61090a565b61019161030a366004611947565b61091b565b61019161031d3660046119a7565b610931565b61016e6103303660046119a7565b60066020525f908152604090205460ff1681565b5f818152602081815260408083206001600160a01b03861684529091529020545b92915050565b5f6001600160e01b03198216636cdb3d1360e11b148061039b57506001600160e01b031982166303a24d0760e21b145b8061036557506301ffc9a760e01b6001600160e01b0319831614610365565b335f9081526006602052604090205460ff161580156103e457506003546001600160a01b03163314155b1561040257604051633e34a41b60e21b815260040160405180910390fd5b8281146104565760405162461bcd60e51b815260206004820152601960248201527f47616368614e46543a206c656e677468206d69736d617463680000000000000060448201526064015b60405180910390fd5b5f5b838110156104f75761049a858583818110610475576104756119c0565b9050602002013584848481811061048e5761048e6119c0565b9050602002013561096e565b8282828181106104ac576104ac6119c0565b9050602002013560055f8787858181106104c8576104c86119c0565b9050602002013581526020019081526020015f205f8282546104ea91906119e8565b9091555050600101610458565b50610572858585808060200260200160405190810160405280939291908181526020018383602002808284375f92019190915250506040805160208089028281018201909352888252909350889250879182918501908490808284375f920182905250604080516020810190915290815292506109ff915050565b5f5b838110156105f85784848281811061058e5761058e6119c0565b90506020020135866001600160a01b03167fcb1c56d5745b05695241c17b7cfaece9a64f70bc32508c0997990633be8056ff8585858181106105d2576105d26119c0565b905060200201356040516105e891815260200190565b60405180910390a3600101610574565b505050505050565b606061060b82610a3d565b61061483610acf565b6040516020016106259291906119fb565b6040516020818303038152906040529050919050565b610646335b86610b5f565b6106538585858585610bd7565b5050505050565b5f8115806106685750603082115b1561067457505f919050565b5f828152600560209081526040808320546004909252909120546103659190611a39565b606081518351146106c95781518351604051635b05999160e01b81526004810192909252602482015260440161044d565b5f835167ffffffffffffffff8111156106e4576106e4611558565b60405190808252806020026020018201604052801561070d578160200160208202803683370190505b5090505f5b845181101561075b5760208082028601015161073690602080840287010151610344565b828281518110610748576107486119c0565b6020908102919091010152600101610712565b509392505050565b61076b610c37565b6107745f610c64565b565b335f9081526006602052604090205460ff161580156107a057506003546001600160a01b03163314155b156107be57604051633e34a41b60e21b815260040160405180910390fd5b6107c8828261096e565b5f82815260056020526040812080548392906107e59084906119e8565b9250508190555061080683838360405180602001604052805f815250610cb5565b81836001600160a01b03167fcb1c56d5745b05695241c17b7cfaece9a64f70bc32508c0997990633be8056ff8360405161084291815260200190565b60405180910390a3505050565b610857610c37565b61089582828080601f0160208091040260200160405190810160405280939291908181526020018383808284375f92019190915250610d1192505050565b5050565b610895338383610d1d565b6108ac610c37565b6001600160a01b0382165f81815260066020908152604091829020805460ff191685151590811790915591519182527fb21afb9ce9be0a676f8f317ff0ca072fb89a4f8ce2d1b6fe80f8755c14f1cb19910160405180910390a25050565b5f6109148261065a565b1592915050565b61092433610640565b6106538585858585610dd2565b610939610c37565b6001600160a01b03811661096257604051631e4fbdf760e01b81525f600482015260240161044d565b61096b81610c64565b50565b81158061097b5750603082115b1561099c5760405163ed15e6cf60e01b81526004810183905260240161044d565b805f036109bc57604051631f2a200560e01b815260040160405180910390fd5b5f6109c68361065a565b9050818110156109fa576040516336a62f1f60e01b815260048101849052602481018390526044810182905260640161044d565b505050565b6001600160a01b038416610a2857604051632bfa23e760e11b81525f600482015260240161044d565b610a375f858585856001610e5f565b50505050565b606060028054610a4c90611a4c565b80601f0160208091040260200160405190810160405280929190818152602001828054610a7890611a4c565b8015610ac35780601f10610a9a57610100808354040283529160200191610ac3565b820191905f5260205f20905b815481529060010190602001808311610aa657829003601f168201915b50505050509050919050565b60605f610adb83610eb7565b60010190505f8167ffffffffffffffff811115610afa57610afa611558565b6040519080825280601f01601f191660200182016040528015610b24576020820181803683370190505b5090508181016020015b5f19016f181899199a1a9b1b9c1cb0b131b232b360811b600a86061a8153600a8504945084610b2e57509392505050565b816001600160a01b0316816001600160a01b031614158015610ba657506001600160a01b038082165f9081526001602090815260408083209386168352929052205460ff16155b156108955760405163711bec9160e11b81526001600160a01b0380841660048301528216602482015260440161044d565b6001600160a01b038416610c0057604051632bfa23e760e11b81525f600482015260240161044d565b6001600160a01b038516610c2857604051626a0d4560e21b81525f600482015260240161044d565b61065385858585856001610e5f565b6003546001600160a01b031633146107745760405163118cdaa760e01b815233600482015260240161044d565b600380546001600160a01b038381166001600160a01b0319831681179093556040519116919082907f8be0079c531659141344cd1fd0a4f28419497f9722a3daafe3b4186f6b6457e0905f90a35050565b6001600160a01b038416610cde57604051632bfa23e760e11b81525f600482015260240161044d565b604080516001808252602082018690528183019081526060820185905260808201909252906105f85f8784848784610e5f565b60026108958282611ac8565b6001600160a01b038316610d4657604051631f18c42760e11b81525f600482015260240161044d565b6001600160a01b038216610d6e5760405162ced3e160e81b81525f600482015260240161044d565b6001600160a01b038381165f81815260016020908152604080832094871680845294825291829020805460ff191686151590811790915591519182527f17307eab39ab6107e8899845ad3d59bd9653f200f220920489ca2b5937696c319101610842565b6001600160a01b038416610dfb57604051632bfa23e760e11b81525f600482015260240161044d565b6001600160a01b038516610e2357604051626a0d4560e21b81525f600482015260240161044d565b60408051600180825260208201869052818301908152606082018590526080820190925290610e5687878484875f610e5f565b50505050505050565b610e6b86868686610f8e565b6001600160a01b038516156105f857338115610e9457610e8f81888888888861119d565b610e56565b60208581015190850151610eac838a8a85858a6112be565b505050505050505050565b5f8072184f03e93ff9f4daa797ed6e38ed64bf6a1f0160401b8310610ef55772184f03e93ff9f4daa797ed6e38ed64bf6a1f0160401b830492506040015b6d04ee2d6d415b85acef81000000008310610f21576d04ee2d6d415b85acef8100000000830492506020015b662386f26fc100008310610f3f57662386f26fc10000830492506010015b6305f5e1008310610f57576305f5e100830492506008015b6127108310610f6b57612710830492506004015b60648310610f7d576064830492506002015b600a83106103655760010192915050565b8051825114610fbd5781518151604051635b05999160e01b81526004810192909252602482015260440161044d565b335f5b83518110156110bf576020818102858101820151908501909101516001600160a01b03881615611071575f828152602081815260408083206001600160a01b038c1684529091529020548181101561104b576040516303dee4c560e01b81526001600160a01b038a16600482015260248101829052604481018390526064810184905260840161044d565b5f838152602081815260408083206001600160a01b038d16845290915290209082900390555b6001600160a01b038716156110b5575f828152602081815260408083206001600160a01b038b168452909152812080548392906110af9084906119e8565b90915550505b5050600101610fc0565b50825160010361113f5760208301515f906020840151909150856001600160a01b0316876001600160a01b0316846001600160a01b03167fc3d58168c5ae7397731d063d5bbf3d657854427343f4c083240f7aacaa2d0f628585604051611130929190918252602082015260400190565b60405180910390a45050610653565b836001600160a01b0316856001600160a01b0316826001600160a01b03167f4a39dc06d4c0dbc64b70af90fd698a233a518aa5d07e595d983b8c0526c8f7fb868660405161118e929190611b84565b60405180910390a45050505050565b6001600160a01b0384163b156105f85760405163bc197c8160e01b81526001600160a01b0385169063bc197c81906111e19089908990889088908890600401611bb1565b6020604051808303815f875af192505050801561121b575060408051601f3d908101601f1916820190925261121891810190611c0e565b60015b611282573d808015611248576040519150601f19603f3d011682016040523d82523d5f602084013e61124d565b606091505b5080515f0361127a57604051632bfa23e760e11b81526001600160a01b038616600482015260240161044d565b805160208201fd5b6001600160e01b0319811663bc197c8160e01b14610e5657604051632bfa23e760e11b81526001600160a01b038616600482015260240161044d565b6001600160a01b0384163b156105f85760405163f23a6e6160e01b81526001600160a01b0385169063f23a6e61906113029089908990889088908890600401611c29565b6020604051808303815f875af192505050801561133c575060408051601f3d908101601f1916820190925261133991810190611c0e565b60015b611369573d808015611248576040519150601f19603f3d011682016040523d82523d5f602084013e61124d565b6001600160e01b0319811663f23a6e6160e01b14610e5657604051632bfa23e760e11b81526001600160a01b038616600482015260240161044d565b80356001600160a01b03811681146113bb575f80fd5b919050565b5f80604083850312156113d1575f80fd5b6113da836113a5565b946020939093013593505050565b6001600160e01b03198116811461096b575f80fd5b5f6020828403121561140d575f80fd5b8135611418816113e8565b9392505050565b5f8083601f84011261142f575f80fd5b50813567ffffffffffffffff811115611446575f80fd5b6020830191508360208260051b8501011115611460575f80fd5b9250929050565b5f805f805f6060868803121561147b575f80fd5b611484866113a5565b9450602086013567ffffffffffffffff808211156114a0575f80fd5b6114ac89838a0161141f565b909650945060408801359150808211156114c4575f80fd5b506114d18882890161141f565b969995985093965092949392505050565b5f602082840312156114f2575f80fd5b5035919050565b5f5b838110156115135781810151838201526020016114fb565b50505f910152565b5f81518084526115328160208601602086016114f9565b601f01601f19169290920160200192915050565b602081525f611418602083018461151b565b634e487b7160e01b5f52604160045260245ffd5b604051601f8201601f1916810167ffffffffffffffff8111828210171561159557611595611558565b604052919050565b5f67ffffffffffffffff8211156115b6576115b6611558565b5060051b60200190565b5f82601f8301126115cf575f80fd5b813560206115e46115df8361159d565b61156c565b8083825260208201915060208460051b870101935086841115611605575f80fd5b602086015b84811015611621578035835291830191830161160a565b509695505050505050565b5f82601f83011261163b575f80fd5b813567ffffffffffffffff81111561165557611655611558565b611668601f8201601f191660200161156c565b81815284602083860101111561167c575f80fd5b816020850160208301375f918101602001919091529392505050565b5f805f805f60a086880312156116ac575f80fd5b6116b5866113a5565b94506116c3602087016113a5565b9350604086013567ffffffffffffffff808211156116df575f80fd5b6116eb89838a016115c0565b94506060880135915080821115611700575f80fd5b61170c89838a016115c0565b93506080880135915080821115611721575f80fd5b5061172e8882890161162c565b9150509295509295909350565b5f806040838503121561174c575f80fd5b823567ffffffffffffffff80821115611763575f80fd5b818501915085601f830112611776575f80fd5b813560206117866115df8361159d565b82815260059290921b840181019181810190898411156117a4575f80fd5b948201945b838610156117c9576117ba866113a5565b825294820194908201906117a9565b965050860135925050808211156117de575f80fd5b506117eb858286016115c0565b9150509250929050565b5f815180845260208085019450602084015f5b8381101561182457815187529582019590820190600101611808565b509495945050505050565b602081525f61141860208301846117f5565b5f805f60608486031215611853575f80fd5b61185c846113a5565b95602085013595506040909401359392505050565b5f8060208385031215611882575f80fd5b823567ffffffffffffffff80821115611899575f80fd5b818501915085601f8301126118ac575f80fd5b8135818111156118ba575f80fd5b8660208285010111156118cb575f80fd5b60209290920196919550909350505050565b5f80604083850312156118ee575f80fd5b6118f7836113a5565b91506020830135801515811461190b575f80fd5b809150509250929050565b5f8060408385031215611927575f80fd5b611930836113a5565b915061193e602084016113a5565b90509250929050565b5f805f805f60a0868803121561195b575f80fd5b611964866113a5565b9450611972602087016113a5565b93506040860135925060608601359150608086013567ffffffffffffffff81111561199b575f80fd5b61172e8882890161162c565b5f602082840312156119b7575f80fd5b611418826113a5565b634e487b7160e01b5f52603260045260245ffd5b634e487b7160e01b5f52601160045260245ffd5b80820180821115610365576103656119d4565b5f8351611a0c8184602088016114f9565b835190830190611a208183602088016114f9565b64173539b7b760d91b9101908152600501949350505050565b81810381811115610365576103656119d4565b600181811c90821680611a6057607f821691505b602082108103611a7e57634e487b7160e01b5f52602260045260245ffd5b50919050565b601f8211156109fa57805f5260205f20601f840160051c81016020851015611aa95750805b601f840160051c820191505b81811015610653575f8155600101611ab5565b815167ffffffffffffffff811115611ae257611ae2611558565b611af681611af08454611a4c565b84611a84565b602080601f831160018114611b29575f8415611b125750858301515b5f19600386901b1c1916600185901b1785556105f8565b5f85815260208120601f198616915b82811015611b5757888601518255948401946001909101908401611b38565b5085821015611b7457878501515f19600388901b60f8161c191681555b5050505050600190811b01905550565b604081525f611b9660408301856117f5565b8281036020840152611ba881856117f5565b95945050505050565b6001600160a01b0386811682528516602082015260a0604082018190525f90611bdc908301866117f5565b8281036060840152611bee81866117f5565b90508281036080840152611c02818561151b565b98975050505050505050565b5f60208284031215611c1e575f80fd5b8151611418816113e8565b6001600160a01b03868116825285166020820152604081018490526060810183905260a0608082018190525f90611c629083018461151b565b97965050505050505056fea26469706673582212201da3c4935de3d11db9d57b7531ee23f504baa31917251892bf0fb3d7d6ec8d1864736f6c63430008180033",
  "linkReferences": {},
  "deployedLinkReferences": {}
}