{"contracts/GachaPack.sol":{"GachaPack":{"abi":[{"inputs":[{"internalType":"address","name":"_nft","type":"address"},{"internalType":"address","name":"_registry","type":"address"}],"stateMutability":"nonpayable","type":"constructor"},{"inputs":[{"internalType":"uint256","name":"sent","type":"uint256"},{"internalType":"uint256","name":"required","type":"uint256"}],"name":"InsufficientPayment","type":"error"},{"inputs":[{"internalType":"enum CardRegistry.Rarity","name":"rarity","type":"uint8"}],"name":"NoCardsAvailable","type":"error"},{"inputs":[{"internalType":"address","name":"owner","type":"address"}],"name":"OwnableInvalidOwner","type":"error"},{"inputs":[{"internalType":"address","name":"account","type":"address"}],"name":"OwnableUnauthorizedAccount","type":"error"},{"inputs":[],"name":"ReentrancyGuardReentrantCall","type":"error"},{"anonymous":false,"inputs":[{"indexed":true,"internalType":"address","name":"player","type":"address"},{"indexed":true,"internalType":"uint256","name":"tokenId","type":"uint256"},{"indexed":false,"internalType":"enum CardRegistry.Rarity","name":"rarity","type":"uint8"}],"name":"CardMinted","type":"event"},{"anonymous":false,"inputs":[{"indexed":true,"internalType":"address","name":"previousOwner","type":"address"},{"indexed":true,"internalType":"address","name":"newOwner","type":"address"}],"name":"OwnershipTransferred","type":"event"},{"anonymous":false,"inputs":[{"indexed":true,"internalType":"address","name":"player","type":"address"},{"indexed":false,"internalType":"enum GachaPack.PackType","name":"packType","type":"uint8"},{"indexed":false,"internalType":"uint256[]","name":"tokenIds","type":"uint256[]"}],"name":"PackOpened","type":"event"},{"anonymous":false,"inputs":[{"indexed":false,"internalType":"enum GachaPack.PackType","name":"packType","type":"uint8"},{"indexed":false,"internalType":"uint256","name":"newPrice","type":"uint256"}],"name":"PackPriceUpdated","type":"event"},{"inputs":[{"internalType":"address","name":"player","type":"address"}],"name":"effectiveMythicThreshold","outputs":[{"internalType":"uint256","name":"","type":"uint256"}],"stateMutability":"view","type":"function"},{"inputs":[{"internalType":"address","name":"player","type":"address"}],"name":"getPityCount","outputs":[{"internalType":"uint256","name":"","type":"uint256"}],"stateMutability":"view","type":"function"},{"inputs":[],"name":"nft","outputs":[{"internalType":"contract GachaNFT","name":"","type":"address"}],"stateMutability":"view","type":"function"},{"inputs":[],"name":"openPremiumPack","outputs":[],"stateMutability":"payable","type":"function"},{"inputs":[],"name":"openStandardPack","outputs":[],"stateMutability":"payable","type":"function"},{"inputs":[],"name":"openUltraPack","outputs":[],"stateMutability":"payable","type":"function"},{"inputs":[],"name":"owner","outputs":[{"internalType":"address","name":"","type":"address"}],"stateMutability":"view","type":"function"},{"inputs":[{"internalType":"enum GachaPack.PackType","name":"","type":"uint8"}],"name":"packConfigs","outputs":[{"internalType":"uint256","name":"price","type":"uint256"},{"internalType":"uint8","name":"size","type":"uint8"},{"internalType":"uint8","name":"minRare","type":"uint8"},{"internalType":"bool","name":"minLegendary","type":"bool"}],"stateMutability":"view","type":"function"},{"inputs":[{"internalType":"address","name":"","type":"address"}],"name":"packsWithoutMythic","outputs":[{"internalType":"uint256","name":"","type":"uint256"}],"stateMutability":"view","type":"function"},{"inputs":[],"name":"registry","outputs":[{"internalType":"contract CardRegistry","name":"","type":"address"}],"stateMutability":"view","type":"function"},{"inputs":[],"name":"renounceOwnership","outputs":[],"stateMutability":"nonpayable","type":"function"},{"inputs":[{"internalType":"enum GachaPack.PackType","name":"packType","type":"uint8"},{"internalType":"uint256","name":"newPrice","type":"uint256"}],"name":"setPackPrice","outputs":[],"stateMutability":"nonpayable","type":"function"},{"inputs":[{"internalType":"address","name":"newOwner","type":"address"}],"name":"transferOwnership","outputs":[],"stateMutability":"nonpayable","type":"function"},{"inputs":[],"name":"withdraw","outputs":[],"stateMutability":"nonpayable","type":"function"},{"stateMutability":"payable","type":"receive"}],"evm":{"bytecode":{"linkReferences":{},"object":"60c060405234801562000010575f80fd5b5060405162001cd538038062001cd58339810160408190526200003391620002f0565b33806200005957604051631e4fbdf760e01b81525f600482015260240160405180910390fd5b620000648162000285565b5060017f9b779b17422d0df92223018b32b4d1fa46e071723d6817e2486d003becc55f008190556001600160a01b0392831660809081529190921660a05260408051808301825266038d7ea4c680008152600a60208083019182528284018681525f606080860182815282805289855295517fa6eef7e35abe7026729641147f7915573c7e97b47efa546f5f6e3230263bcb495593517fa6eef7e35abe7026729641147f7915573c7e97b47efa546f5f6e3230263bcb4a80549351965160ff92831661ffff199586161761010098841689021762ff000019908116620100009215158302179092558851808b018a526606651728988000815260148188019081526002828c01818152838b018881528f89528f8b5293517fcc69885fda6bcc1a4ace058b4a62bf5e179ea78fd58a1ccd71c22cc9b688792f5591517fcc69885fda6bcc1a4ace058b4a62bf5e179ea78fd58a1ccd71c22cc9b6887930805493519451918816938a16939093179387168c02939093178516921515840292909217905589519a8b018a526608e1bc9bf040008b52601e8b880190815260039a8c019a8b52978b018c815294529990945296517fd9d16d34ffb15ba3a3d852f0d403e2ce1d691fb54de27ac87cd2f993f3ec330f5592517fd9d16d34ffb15ba3a3d852f0d403e2ce1d691fb54de27ac87cd2f993f3ec33108054965194511515909802938716909402941692909416919091179190911790911617905562000326565b5f80546001600160a01b038381166001600160a01b0319831681178455604051919092169283917f8be0079c531659141344cd1fd0a4f28419497f9722a3daafe3b4186f6b6457e09190a35050565b80516001600160a01b0381168114620002eb575f80fd5b919050565b5f806040838503121562000302575f80fd5b6200030d83620002d4565b91506200031d60208401620002d4565b90509250929050565b60805160a051611940620003955f395f81816101c30152818161079b0152818161088e01528181610aa80152818161102101528181611109015281816111ab015261143c01525f818161011601528181610b81015281816112790152818161137601526114d701526119405ff3fe6080604052600436106100dc575f3560e01c80637b1039991161007c578063ce54538911610057578063ce54538914610220578063e6c4b9d414610254578063f2fde38b14610273578063f399639014610292575f80fd5b80637b103999146101b25780638c730a5a146101e55780638da5cb5b14610204575f80fd5b80634fd959e3116100b75780634fd959e314610155578063552a5d111461015d57806365405aca14610196578063715018a61461019e575f80fd5b80633ccfd60b146100e7578063405a141b146100fd57806347ccca0214610105575f80fd5b366100e357005b5f80fd5b3480156100f2575f80fd5b506100fb610306565b005b6100fb610423565b348015610110575f80fd5b506101387f000000000000000000000000000000000000000000000000000000000000000081565b6040516001600160a01b0390911681526020015b60405180910390f35b6100fb61044b565b348015610168575f80fd5b5061018861017736600461159c565b60026020525f908152604090205481565b60405190815260200161014c565b6100fb61045d565b3480156101a9575f80fd5b506100fb61046e565b3480156101bd575f80fd5b506101387f000000000000000000000000000000000000000000000000000000000000000081565b3480156101f0575f80fd5b506100fb6101ff3660046115d5565b61047f565b34801561020f575f80fd5b505f546001600160a01b0316610138565b34801561022b575f80fd5b5061018861023a36600461159c565b6001600160a01b03165f9081526002602052604090205490565b34801561025f575f80fd5b5061018861026e36600461159c565b6104fe565b34801561027e575f80fd5b506100fb61028d36600461159c565b610540565b34801561029d575f80fd5b506102da6102ac3660046115fd565b600160208190525f9182526040909120805491015460ff808216916101008104821691620100009091041684565b60405161014c949392919093845260ff9283166020850152911660408301521515606082015260800190565b61030e61057d565b6103166105a9565b47806103695760405162461bcd60e51b815260206004820152601e60248201527f47616368615061636b3a206e6f7468696e6720746f207769746864726177000060448201526064015b60405180910390fd5b5f80546040516001600160a01b039091169083908381818185875af1925050503d805f81146103b3576040519150601f19603f3d011682016040523d82523d5f602084013e6103b8565b606091505b50509050806104095760405162461bcd60e51b815260206004820152601a60248201527f47616368615061636b3a207769746864726177206661696c65640000000000006044820152606401610360565b505061042160015f805160206118eb83398151915255565b565b61042b6105a9565b61043560016105c4565b61042160015f805160206118eb83398151915255565b6104536105a9565b61043560026105c4565b6104656105a9565b6104355f6105c4565b61047661057d565b6104215f610ce3565b61048761057d565b8060015f84600281111561049d5761049d611616565b60028111156104ae576104ae611616565b81526020019081526020015f205f01819055507f637a10028cb48cb527170900d1ff6ce52846de091982bbb51a21df24c5dab66582826040516104f292919061163e565b60405180910390a15050565b5f8061050983610d32565b90506105196126fc61271061166d565b61ffff16811061052d57506126fc92915050565b610539816126fc61168f565b9392505050565b61054861057d565b6001600160a01b03811661057157604051631e4fbdf760e01b81525f6004820152602401610360565b61057a81610ce3565b50565b5f546001600160a01b031633146104215760405163118cdaa760e01b8152336004820152602401610360565b6105b1610d71565b60025f805160206118eb83398151915255565b5f60015f8360028111156105da576105da611616565b60028111156105eb576105eb611616565b815260208082019290925260409081015f208151608081018352815480825260019092015460ff8082169583019590955261010081048516938201939093526201000090920490921615156060820152915034101561066957805160405163b99e2ab760e01b81523460048201526024810191909152604401610360565b5f61067560014361168f565b60408051914060208301526bffffffffffffffffffffffff193360601b1690820152426054820152446074820152609401604051602081830303815290604052805190602001205f1c90505f6106ca33610d32565b90505f836020015160ff1667ffffffffffffffff8111156106ed576106ed6116a8565b604051908082528060200260200182016040528015610716578160200160208202803683370190505b509050610721610da0565b7f4739ad6010ed047849ba10e67d99de2bad0c45471b38f28e03ecc0ede12639ac5f80805b876040015160ff1681101561083d575f6107636001898588610e0e565b905080868481518110610778576107786116bc565b60209081029190910101526003604051634875869760e01b8152600481018390527f00000000000000000000000000000000000000000000000000000000000000006001600160a01b031690634875869790602401602060405180830381865afa1580156107e8573d5f803e3d5ffd5b505050506040513d601f19601f8201168201806040525081019061080c91906116d0565b600381111561081d5761081d611616565b0361082757600193505b82610831816116ee565b93505050600101610746565b50866060015115610929575f6108566002888487610e0e565b90508085838151811061086b5761086b6116bc565b60209081029190910101526003604051634875869760e01b8152600481018390527f00000000000000000000000000000000000000000000000000000000000000006001600160a01b031690634875869790602401602060405180830381865afa1580156108db573d5f803e3d5ffd5b505050506040513d601f19601f820116820180604052508101906108ff91906116d0565b600381111561091057610910611616565b0361091a57600192505b81610924816116ee565b925050505b805b876020015160ff168110156109a8575f610946888389610f20565b905061095181610fed565b90505f610960828a8589611105565b905080878481518110610975576109756116bc565b6020908102919091010152600382600381111561099457610994611616565b0361099e57600194505b505060010161092b565b5081156109c357335f908152600260205260408120556109e3565b335f9081526002602052604081208054916109dd836116ee565b91905055505b5f876020015160ff1667ffffffffffffffff811115610a0457610a046116a8565b604051908082528060200260200182016040528015610a2d578160200160208202803683370190505b5090505f5b886020015160ff16811015610b69576001828281518110610a5557610a556116bc565b602002602001018181525050858181518110610a7357610a736116bc565b6020026020010151336001600160a01b03167f140538f7003346d4628961ef82b7128021c494a8f1881ca2a8f24d8e743a4f057f00000000000000000000000000000000000000000000000000000000000000006001600160a01b031663487586978a8681518110610ae757610ae76116bc565b60200260200101516040518263ffffffff1660e01b8152600401610b0d91815260200190565b602060405180830381865afa158015610b28573d5f803e3d5ffd5b505050506040513d601f19601f82011682018060405250810190610b4c91906116d0565b604051610b599190611716565b60405180910390a3600101610a32565b50604051630dfe246d60e01b81526001600160a01b037f00000000000000000000000000000000000000000000000000000000000000001690630dfe246d90610bba9033908990869060040161175e565b5f604051808303815f87803b158015610bd1575f80fd5b505af1158015610be3573d5f803e3d5ffd5b50505050336001600160a01b03167f8ec9a35d54af30762858796fa12f9026597e6e747373346e2d9e7a78d9f1252b8a87604051610c22929190611793565b60405180910390a287515f90610c38903461168f565b90508015610cd7576040515f90339083908381818185875af1925050503d805f8114610c7f576040519150601f19603f3d011682016040523d82523d5f602084013e610c84565b606091505b5050905080610cd55760405162461bcd60e51b815260206004820152601860248201527f47616368615061636b3a20726566756e64206661696c656400000000000000006044820152606401610360565b505b50505050505050505050565b5f80546001600160a01b038381166001600160a01b0319831681178455604051919092169283917f8be0079c531659141344cd1fd0a4f28419497f9722a3daafe3b4186f6b6457e09190a35050565b6001600160a01b0381165f9081526002602052604081205460328111610d5a57505f92915050565b6014610d6760328361168f565b61053991906117b2565b5f805160206118eb8339815191525460020361042157604051633ee5aeb560e01b815260040160405180910390fd5b7f4739ad6010ed047849ba10e67d99de2bad0c45471b38f28e03ecc0ede12639ac60015b60308111610e0a575f8181526020839052604090205460ff1615610df8575f818152602083905260409020805460ff191690555b80610e02816116ee565b915050610dc4565b5050565b5f806127108585604051602001610e4292919091825260208201526919dd585c985b9d19595960b21b6040820152604a0190565b604051602081830303815290604052805190602001205f1c610e6491906117c9565b9050856001876003811115610e7b57610e7b611616565b03610ea3576126fc8210610e9157506003610ec9565b6125808210610e9e575060025b610ec9565b6002876003811115610eb757610eb7611616565b03610ec9576126fc8210610ec9575060035b610ed281610fed565b9050866003811115610ee657610ee6611616565b60ff16816003811115610efb57610efb611616565b60ff161015610f075750855b610f1381878787611105565b925050505b949350505050565b5f806127108585604051602001610f5092919091825260208201526572617269747960d01b604082015260460190565b604051602081830303815290604052805190602001205f1c610f7291906117c9565b90505f610f836126fc61271061166d565b61ffff16841015610f9f57610f9a846126fc61168f565b610fa3565b6126fc5b9050612008821015610fb9575f92505050610539565b612580821015610fce57600192505050610539565b80821015610fe157600292505050610539565b50600395945050505050565b5f600382600381111561100257611002611616565b14801561109857506040516393292fa360e01b81526001600160a01b037f000000000000000000000000000000000000000000000000000000000000000016906393292fa39061105790600390600401611716565b602060405180830381865afa158015611072573d5f803e3d5ffd5b505050506040513d601f19601f8201168201806040525081019061109691906117e8565b155b156110a257600291505b60028260038111156110b6576110b6611616565b1480156110c857506110c86002611438565b156110d257600191505b60018260038111156110e6576110e6611616565b1480156110f857506110f86001611438565b15611101575f91505b5090565b5f807f00000000000000000000000000000000000000000000000000000000000000006001600160a01b0316632fbfbe84876040518263ffffffff1660e01b81526004016111539190611716565b5f60405180830381865afa15801561116d573d5f803e3d5ffd5b505050506040513d5f823e601f3d908101601f1916820160405261119491908101906117ff565b90505f5b8151811015611318576001600160a01b037f000000000000000000000000000000000000000000000000000000000000000016633fdd1c9088886111de856103e86117b2565b6111e8908a6118b8565b6040518463ffffffff1660e01b8152600401611206939291906118cb565b602060405180830381865afa158015611221573d5f803e3d5ffd5b505050506040513d601f19601f8201168201806040525081019061124591906117e8565b5f8181526020869052604090205490935060ff161580156112ec57506040516323fed20d60e11b8152600481018490525f907f00000000000000000000000000000000000000000000000000000000000000006001600160a01b0316906347fda41a90602401602060405180830381865afa1580156112c6573d5f803e3d5ffd5b505050506040513d601f19601f820116820180604052508101906112ea91906117e8565b115b156113105750505f818152602083905260409020805460ff19166001179055610f18565b600101611198565b505f5b815181101561141557818181518110611336576113366116bc565b6020908102919091018101515f8181529186905260409091205490935060ff161580156113e957506040516323fed20d60e11b8152600481018490525f907f00000000000000000000000000000000000000000000000000000000000000006001600160a01b0316906347fda41a90602401602060405180830381865afa1580156113c3573d5f803e3d5ffd5b505050506040513d601f19601f820116820180604052508101906113e791906117e8565b115b1561140d5750505f818152602083905260409020805460ff19166001179055610f18565b60010161131b565b5061142e5f86611428876201869f6118b8565b86611105565b9695505050505050565b5f807f00000000000000000000000000000000000000000000000000000000000000006001600160a01b0316632fbfbe84846040518263ffffffff1660e01b81526004016114869190611716565b5f60405180830381865afa1580156114a0573d5f803e3d5ffd5b505050506040513d5f823e601f3d908101601f191682016040526114c791908101906117ff565b90505f5b8151811015611592575f7f00000000000000000000000000000000000000000000000000000000000000006001600160a01b03166347fda41a848481518110611516576115166116bc565b60200260200101516040518263ffffffff1660e01b815260040161153c91815260200190565b602060405180830381865afa158015611557573d5f803e3d5ffd5b505050506040513d601f19601f8201168201806040525081019061157b91906117e8565b111561158a57505f9392505050565b6001016114cb565b5051151592915050565b5f602082840312156115ac575f80fd5b81356001600160a01b0381168114610539575f80fd5b8035600381106115d0575f80fd5b919050565b5f80604083850312156115e6575f80fd5b6115ef836115c2565b946020939093013593505050565b5f6020828403121561160d575f80fd5b610539826115c2565b634e487b7160e01b5f52602160045260245ffd5b6003811061163a5761163a611616565b9052565b6040810161164c828561162a565b8260208301529392505050565b634e487b7160e01b5f52601160045260245ffd5b61ffff82811682821603908082111561168857611688611659565b5092915050565b818103818111156116a2576116a2611659565b92915050565b634e487b7160e01b5f52604160045260245ffd5b634e487b7160e01b5f52603260045260245ffd5b5f602082840312156116e0575f80fd5b815160048110610539575f80fd5b5f600182016116ff576116ff611659565b5060010190565b6004811061163a5761163a611616565b602081016116a28284611706565b5f815180845260208085019450602084015f5b8381101561175357815187529582019590820190600101611737565b509495945050505050565b6001600160a01b03841681526060602082018190525f9061178190830185611724565b828103604084015261142e8185611724565b61179d818461162a565b604060208201525f610f186040830184611724565b80820281158282048414176116a2576116a2611659565b5f826117e357634e487b7160e01b5f52601260045260245ffd5b500690565b5f602082840312156117f8575f80fd5b5051919050565b5f6020808385031215611810575f80fd5b825167ffffffffffffffff80821115611827575f80fd5b818501915085601f83011261183a575f80fd5b81518181111561184c5761184c6116a8565b8060051b604051601f19603f83011681018181108582111715611871576118716116a8565b60405291825284820192508381018501918883111561188e575f80fd5b938501935b828510156118ac57845184529385019392850192611893565b98975050505050505050565b808201808211156116a2576116a2611659565b606081016118d98286611706565b60208201939093526040015291905056fe9b779b17422d0df92223018b32b4d1fa46e071723d6817e2486d003becc55f00a2646970667358221220e8a0df49e5654b9c9aa0ecc1252f1c20c99f97be343d23df09f13e56ae69863d64736f6c63430008180033","opcodes":"PUSH1 0xC0 PUSH1 0x40 MSTORE CALLVALUE DUP1 ISZERO PUSH3 0x10 JUMPI PUSH0 DUP1 REVERT JUMPDEST POP PUSH1 0x40 MLOAD PUSH3 0x1CD5 CODESIZE SUB DUP1 PUSH3 0x1CD5 DUP4 CODECOPY DUP2 ADD PUSH1 0x40 DUP2 SWAP1 MSTORE PUSH3 0x33 SWAP2 PUSH3 0x2F0 JUMP JUMPDEST CALLER DUP1 PUSH3 0x59 JUMPI PUSH1 0x40 MLOAD PUSH4 0x1E4FBDF7 PUSH1 0xE0 SHL DUP2 MSTORE PUSH0 PUSH1 0x4 DUP3 ADD MSTORE PUSH1 0x24 ADD PUSH1 0x40 MLOAD DUP1 SWAP2 SUB SWAP1 REVERT JUMPDEST PUSH3 0x64 DUP2 PUSH3 0x285 JUMP JUMPDEST POP PUSH1 0x1 PUSH32 0x9B779B17422D0DF92223018B32B4D1FA46E071723D6817E2486D003BECC55F00 DUP2 SWAP1 SSTORE PUSH1 0x1 PUSH1 0x1 PUSH1 0xA0 SHL SUB SWAP3 DUP4 AND PUSH1 0x80 SWAP1 DUP2 MSTORE SWAP2 SWAP1 SWAP3 AND PUSH1 0xA0 MSTORE PUSH1 0x40 DUP1 MLOAD DUP1 DUP4 ADD DUP3 MSTORE PUSH7 0x38D7EA4C68000 DUP2 MSTORE PUSH1 0xA PUSH1 0x20 DUP1 DUP4 ADD SWAP2 DUP3 MSTORE DUP3 DUP5 ADD DUP7 DUP2 MSTORE PUSH0 PUSH1 0x60 DUP1 DUP7 ADD DUP3 DUP2 MSTORE DUP3 DUP1 MSTORE DUP10 DUP6 MSTORE SWAP6 MLOAD PUSH32 0xA6EEF7E35ABE7026729641147F7915573C7E97B47EFA546F5F6E3230263BCB49 SSTORE SWAP4 MLOAD PUSH32 0xA6EEF7E35ABE7026729641147F7915573C7E97B47EFA546F5F6E3230263BCB4A DUP1 SLOAD SWAP4 MLOAD SWAP7 MLOAD PUSH1 0xFF SWAP3 DUP4 AND PUSH2 0xFFFF NOT SWAP6 DUP7 AND OR PUSH2 0x100 SWAP9 DUP5 AND DUP10 MUL OR PUSH3 0xFF0000 NOT SWAP1 DUP2 AND PUSH3 0x10000 SWAP3 ISZERO ISZERO DUP4 MUL OR SWAP1 SWAP3 SSTORE DUP9 MLOAD DUP1 DUP12 ADD DUP11 MSTORE PUSH7 0x6651728988000 DUP2 MSTORE PUSH1 0x14 DUP2 DUP9 ADD SWAP1 DUP2 MSTORE PUSH1 0x2 DUP3 DUP13 ADD DUP2 DUP2 MSTORE DUP4 DUP12 ADD DUP9 DUP2 MSTORE DUP16 DUP10 MSTORE DUP16 DUP12 MSTORE SWAP4 MLOAD PUSH32 0xCC69885FDA6BCC1A4ACE058B4A62BF5E179EA78FD58A1CCD71C22CC9B688792F SSTORE SWAP2 MLOAD PUSH32 0xCC69885FDA6BCC1A4ACE058B4A62BF5E179EA78FD58A1CCD71C22CC9B6887930 DUP1 SLOAD SWAP4 MLOAD SWAP5 MLOAD SWAP2 DUP9 AND SWAP4 DUP11 AND SWAP4 SWAP1 SWAP4 OR SWAP4 DUP8 AND DUP13 MUL SWAP4 SWAP1 SWAP4 OR DUP6 AND SWAP3 ISZERO ISZERO DUP5 MUL SWAP3 SWAP1 SWAP3 OR SWAP1 SSTORE DUP10 MLOAD SWAP11 DUP12 ADD DUP11 MSTORE PUSH7 0x8E1BC9BF04000 DUP12 MSTORE PUSH1 0x1E DUP12 DUP9 ADD SWAP1 DUP2 MSTORE PUSH1 0x3 SWAP11 DUP13 ADD SWAP11 DUP12 MSTORE SWAP8 DUP12 ADD DUP13 DUP2 MSTORE SWAP5 MSTORE SWAP10 SWAP1 SWAP5 MSTORE SWAP7 MLOAD PUSH32 0xD9D16D34FFB15BA3A3D852F0D403E2CE1D691FB54DE27AC87CD2F993F3EC330F SSTORE SWAP3 MLOAD PUSH32 0xD9D16D34FFB15BA3A3D852F0D403E2CE1D691FB54DE27AC87CD2F993F3EC3310 DUP1 SLOAD SWAP7 MLOAD SWAP5 MLOAD ISZERO ISZERO SWAP1 SWAP9 MUL SWAP4 DUP8 AND SWAP1 SWAP5 MUL SWAP5 AND SWAP3 SWAP1 SWAP5 AND SWAP2 SWAP1 SWAP2 OR SWAP2 SWAP1 SWAP2 OR SWAP1 SWAP2 AND OR SWAP1 SSTORE PUSH3 0x326 JUMP JUMPDEST PUSH0 DUP1 SLOAD PUSH1 0x1 PUSH1 0x1 PUSH1 0xA0 SHL SUB DUP4 DUP2 AND PUSH1 0x1 PUSH1 0x1 PUSH1 0xA0 SHL SUB NOT DUP4 AND DUP2 OR DUP5 SSTORE PUSH1 0x40 MLOAD SWAP2 SWAP1 SWAP3 AND SWAP3 DUP4 SWAP2 PUSH32 0x8BE0079C531659141344CD1FD0A4F28419497F9722A3DAAFE3B4186F6B6457E0 SWAP2 SWAP1 LOG3 POP POP JUMP JUMPDEST DUP1 MLOAD PUSH1 0x1 PUSH1 0x1 PUSH1 0xA0 SHL SUB DUP2 AND DUP2 EQ PUSH3 0x2EB JUMPI PUSH0 DUP1 REVERT JUMPDEST SWAP2 SWAP1 POP JUMP JUMPDEST PUSH0 DUP1 PUSH1 0x40 DUP4 DUP6 SUB SLT ISZERO PUSH3 0x302 JUMPI PUSH0 DUP1 REVERT JUMPDEST PUSH3 0x30D DUP4 PUSH3 0x2D4 JUMP JUMPDEST SWAP2 POP PUSH3 0x31D PUSH1 0x20 DUP5 ADD PUSH3 0x2D4 JUMP JUMPDEST SWAP1 POP SWAP3 POP SWAP3 SWAP1 POP JUMP JUMPDEST PUSH1 0x80 MLOAD PUSH1 0xA0 MLOAD PUSH2 0x1940 PUSH3 0x395 PUSH0 CODECOPY PUSH0 DUP2 DUP2 PUSH2 0x1C3 ADD MSTORE DUP2 DUP2 PUSH2 0x79B ADD MSTORE DUP2 DUP2 PUSH2 0x88E ADD MSTORE DUP2 DUP2 PUSH2 0xAA8 ADD MSTORE DUP2 DUP2 PUSH2 0x1021 ADD MSTORE DUP2 DUP2 PUSH2 0x1109 ADD MSTORE DUP2 DUP2 PUSH2 0x11AB ADD MSTORE PUSH2 0x143C ADD MSTORE PUSH0 DUP2 DUP2 PUSH2 0x116 ADD MSTORE DUP2 DUP2 PUSH2 0xB81 ADD MSTORE DUP2 DUP2 PUSH2 0x1279 ADD MSTORE DUP2 DUP2 PUSH2 0x1376 ADD MSTORE PUSH2 0x14D7 ADD MSTORE PUSH2 0x1940 PUSH0 RETURN INVALID PUSH1 0x80 PUSH1 0x40 MSTORE PUSH1 0x4 CALLDATASIZE LT PUSH2 0xDC JUMPI PUSH0 CALLDATALOAD PUSH1 0xE0 SHR DUP1 PUSH4 0x7B103999 GT PUSH2 0x7C JUMPI DUP1 PUSH4 0xCE545389 GT PUSH2 0x57 JUMPI DUP1 PUSH4 0xCE545389 EQ PUSH2 0x220 JUMPI DUP1 PUSH4 0xE6C4B9D4 EQ PUSH2 0x254 JUMPI DUP1 PUSH4 0xF2FDE38B EQ PUSH2 0x273 JUMPI DUP1 PUSH4 0xF3996390 EQ PUSH2 0x292 JUMPI PUSH0 DUP1 REVERT JUMPDEST DUP1 PUSH4 0x7B103999 EQ PUSH2 0x1B2 JUMPI DUP1 PUSH4 0x8C730A5A EQ PUSH2 0x1E5 JUMPI DUP1 PUSH4 0x8DA5CB5B EQ PUSH2 0x204 JUMPI PUSH0 DUP1 REVERT JUMPDEST DUP1 PUSH4 0x4FD959E3 GT PUSH2 0xB7 JUMPI DUP1 PUSH4 0x4FD959E3 EQ PUSH2 0x155 JUMPI DUP1 PUSH4 0x552A5D11 EQ PUSH2 0x15D JUMPI DUP1 PUSH4 0x65405ACA EQ PUSH2 0x196 JUMPI DUP1 PUSH4 0x715018A6 EQ PUSH2 0x19E JUMPI PUSH0 DUP1 REVERT JUMPDEST DUP1 PUSH4 0x3CCFD60B EQ PUSH2 0xE7 JUMPI DUP1 PUSH4 0x405A141B EQ PUSH2 0xFD JUMPI DUP1 PUSH4 0x47CCCA02 EQ PUSH2 0x105 JUMPI PUSH0 DUP1 REVERT JUMPDEST CALLDATASIZE PUSH2 0xE3 JUMPI STOP JUMPDEST PUSH0 DUP1 REVERT JUMPDEST CALLVALUE DUP1 ISZERO PUSH2 0xF2 JUMPI PUSH0 DUP1 REVERT JUMPDEST POP PUSH2 0xFB PUSH2 0x306 JUMP JUMPDEST STOP JUMPDEST PUSH2 0xFB PUSH2 0x423 JUMP JUMPDEST CALLVALUE DUP1 ISZERO PUSH2 0x110 JUMPI PUSH0 DUP1 REVERT JUMPDEST POP PUSH2 0x138 PUSH32 0x0 DUP2 JUMP JUMPDEST PUSH1 0x40 MLOAD PUSH1 0x1 PUSH1 0x1 PUSH1 0xA0 SHL SUB SWAP1 SWAP2 AND DUP2 MSTORE PUSH1 0x20 ADD JUMPDEST PUSH1 0x40 MLOAD DUP1 SWAP2 SUB SWAP1 RETURN JUMPDEST PUSH2 0xFB PUSH2 0x44B JUMP JUMPDEST CALLVALUE DUP1 ISZERO PUSH2 0x168 JUMPI PUSH0 DUP1 REVERT JUMPDEST POP PUSH2 0x188 PUSH2 0x177 CALLDATASIZE PUSH1 0x4 PUSH2 0x159C JUMP JUMPDEST PUSH1 0x2 PUSH1 0x20 MSTORE PUSH0 SWAP1 DUP2 MSTORE PUSH1 0x40 SWAP1 KECCAK256 SLOAD DUP2 JUMP JUMPDEST PUSH1 0x40 MLOAD SWAP1 DUP2 MSTORE PUSH1 0x20 ADD PUSH2 0x14C JUMP JUMPDEST PUSH2 0xFB PUSH2 0x45D JUMP JUMPDEST CALLVALUE DUP1 ISZERO PUSH2 0x1A9 JUMPI PUSH0 DUP1 REVERT JUMPDEST POP PUSH2 0xFB PUSH2 0x46E JUMP JUMPDEST CALLVALUE DUP1 ISZERO PUSH2 0x1BD JUMPI PUSH0 DUP1 REVERT JUMPDEST POP PUSH2 0x138 PUSH32 0x0 DUP2 JUMP JUMPDEST CALLVALUE DUP1 ISZERO PUSH2 0x1F0 JUMPI PUSH0 DUP1 REVERT JUMPDEST POP PUSH2 0xFB PUSH2 0x1FF CALLDATASIZE PUSH1 0x4 PUSH2 0x15D5 JUMP JUMPDEST PUSH2 0x47F JUMP JUMPDEST CALLVALUE DUP1 ISZERO PUSH2 0x20F JUMPI PUSH0 DUP1 REVERT JUMPDEST POP PUSH0 SLOAD PUSH1 0x1 PUSH1 0x1 PUSH1 0xA0 SHL SUB AND PUSH2 0x138 JUMP JUMPDEST CALLVALUE DUP1 ISZERO PUSH2 0x22B JUMPI PUSH0 DUP1 REVERT JUMPDEST POP PUSH2 0x188 PUSH2 0x23A CALLDATASIZE PUSH1 0x4 PUSH2 0x159C JUMP JUMPDEST PUSH1 0x1 PUSH1 0x1 PUSH1 0xA0 SHL SUB AND PUSH0 SWAP1 DUP2 MSTORE PUSH1 0x2 PUSH1 0x20 MSTORE PUSH1 0x40 SWAP1 KECCAK256 SLOAD SWAP1 JUMP JUMPDEST CALLVALUE DUP1 ISZERO PUSH2 0x25F JUMPI PUSH0 DUP1 REVERT JUMPDEST POP PUSH2 0x188 PUSH2 0x26E CALLDATASIZE PUSH1 0x4 PUSH2 0x159C JUMP JUMPDEST PUSH2 0x4FE JUMP JUMPDEST CALLVALUE DUP1 ISZERO PUSH2 0x27E JUMPI PUSH0 DUP1 REVERT JUMPDEST POP PUSH2 0xFB PUSH2 0x28D CALLDATASIZE PUSH1 0x4 PUSH2 0x159C JUMP JUMPDEST PUSH2 0x540 JUMP JUMPDEST CALLVALUE DUP1 ISZERO PUSH2 0x29D JUMPI PUSH0 DUP1 REVERT JUMPDEST POP PUSH2 0x2DA PUSH2 0x2AC CALLDATASIZE PUSH1 0x4 PUSH2 0x15FD JUMP JUMPDEST PUSH1 0x1 PUSH1 0x20 DUP2 SWAP1 MSTORE PUSH0 SWAP2 DUP3 MSTORE PUSH1 0x40 SWAP1 SWAP2 KECCAK256 DUP1 SLOAD SWAP2 ADD SLOAD PUSH1 0xFF DUP1 DUP3 AND SWAP2 PUSH2 0x100 DUP2 DIV DUP3 AND SWAP2 PUSH3 0x10000 SWAP1 SWAP2 DIV AND DUP5 JUMP JUMPDEST PUSH1 0x40 MLOAD PUSH2 0x14C SWAP5 SWAP4 SWAP3 SWAP2 SWAP1 SWAP4 DUP5 MSTORE PUSH1 0xFF SWAP3 DUP4 AND PUSH1 0x20 DUP6 ADD MSTORE SWAP2 AND PUSH1 0x40 DUP4 ADD MSTORE ISZERO ISZERO PUSH1 0x60 DUP3 ADD MSTORE PUSH1 0x80 ADD SWAP1 JUMP JUMPDEST PUSH2 0x30E PUSH2 0x57D JUMP JUMPDEST PUSH2 0x316 PUSH2 0x5A9 JUMP JUMPDEST SELFBALANCE DUP1 PUSH2 0x369 JUMPI PUSH1 0x40 MLOAD PUSH3 0x461BCD PUSH1 0xE5 SHL DUP2 MSTORE PUSH1 0x20 PUSH1 0x4 DUP3 ADD MSTORE PUSH1 0x1E PUSH1 0x24 DUP3 ADD MSTORE PUSH32 0x47616368615061636B3A206E6F7468696E6720746F2077697468647261770000 PUSH1 0x44 DUP3 ADD MSTORE PUSH1 0x64 ADD JUMPDEST PUSH1 0x40 MLOAD DUP1 SWAP2 SUB SWAP1 REVERT JUMPDEST PUSH0 DUP1 SLOAD PUSH1 0x40 MLOAD PUSH1 0x1 PUSH1 0x1 PUSH1 0xA0 SHL SUB SWAP1 SWAP2 AND SWAP1 DUP4 SWAP1 DUP4 DUP2 DUP2 DUP2 DUP6 DUP8 GAS CALL SWAP3 POP POP POP RETURNDATASIZE DUP1 PUSH0 DUP2 EQ PUSH2 0x3B3 JUMPI PUSH1 0x40 MLOAD SWAP2 POP PUSH1 0x1F NOT PUSH1 0x3F RETURNDATASIZE ADD AND DUP3 ADD PUSH1 0x40 MSTORE RETURNDATASIZE DUP3 MSTORE RETURNDATASIZE PUSH0 PUSH1 0x20 DUP5 ADD RETURNDATACOPY PUSH2 0x3B8 JUMP JUMPDEST PUSH1 0x60 SWAP2 POP JUMPDEST POP POP SWAP1 POP DUP1 PUSH2 0x409 JUMPI PUSH1 0x40 MLOAD PUSH3 0x461BCD PUSH1 0xE5 SHL DUP2 MSTORE PUSH1 0x20 PUSH1 0x4 DUP3 ADD MSTORE PUSH1 0x1A PUSH1 0x24 DUP3 ADD MSTORE PUSH32 0x47616368615061636B3A207769746864726177206661696C6564000000000000 PUSH1 0x44 DUP3 ADD MSTORE PUSH1 0x64 ADD PUSH2 0x360 JUMP JUMPDEST POP POP PUSH2 0x421 PUSH1 0x1 PUSH0 DUP1 MLOAD PUSH1 0x20 PUSH2 0x18EB DUP4 CODECOPY DUP2 MLOAD SWAP2 MSTORE SSTORE JUMP JUMPDEST JUMP JUMPDEST PUSH2 0x42B PUSH2 0x5A9 JUMP JUMPDEST PUSH2 0x435 PUSH1 0x1 PUSH2 0x5C4 JUMP JUMPDEST PUSH2 0x421 PUSH1 0x1 PUSH0 DUP1 MLOAD PUSH1 0x20 PUSH2 0x18EB DUP4 CODECOPY DUP2 MLOAD SWAP2 MSTORE SSTORE JUMP JUMPDEST PUSH2 0x453 PUSH2 0x5A9 JUMP JUMPDEST PUSH2 0x435 PUSH1 0x2 PUSH2 0x5C4 JUMP JUMPDEST PUSH2 0x465 PUSH2 0x5A9 JUMP JUMPDEST PUSH2 0x435 PUSH0 PUSH2 0x5C4 JUMP JUMPDEST PUSH2 0x476 PUSH2 0x57D JUMP JUMPDEST PUSH2 0x421 PUSH0 PUSH2 0xCE3 JUMP JUMPDEST PUSH2 0x487 PUSH2 0x57D JUMP JUMPDEST DUP1 PUSH1 0x1 PUSH0 DUP5 PUSH1 0x2 DUP2 GT ISZERO PUSH2 0x49D JUMPI PUSH2 0x49D PUSH2 0x1616 JUMP JUMPDEST PUSH1 0x2 DUP2 GT ISZERO PUSH2 0x4AE JUMPI PUSH2 0x4AE PUSH2 0x1616 JUMP JUMPDEST DUP2 MSTORE PUSH1 0x20 ADD SWAP1 DUP2 MSTORE PUSH1 0x20 ADD PUSH0 KECCAK256 PUSH0 ADD DUP2 SWAP1 SSTORE POP PUSH32 0x637A10028CB48CB527170900D1FF6CE52846DE091982BBB51A21DF24C5DAB665 DUP3 DUP3 PUSH1 0x40 MLOAD PUSH2 0x4F2 SWAP3 SWAP2 SWAP1 PUSH2 0x163E JUMP JUMPDEST PUSH1 0x40 MLOAD DUP1 SWAP2 SUB SWAP1 LOG1 POP POP JUMP JUMPDEST PUSH0 DUP1 PUSH2 0x509 DUP4 PUSH2 0xD32 JUMP JUMPDEST SWAP1 POP PUSH2 0x519 PUSH2 0x26FC PUSH2 0x2710 PUSH2 0x166D JUMP JUMPDEST PUSH2 0xFFFF AND DUP2 LT PUSH2 0x52D JUMPI POP PUSH2 0x26FC SWAP3 SWAP2 POP POP JUMP JUMPDEST PUSH2 0x539 DUP2 PUSH2 0x26FC PUSH2 0x168F JUMP JUMPDEST SWAP4 SWAP3 POP POP POP JUMP JUMPDEST PUSH2 0x548 PUSH2 0x57D JUMP JUMPDEST PUSH1 0x1 PUSH1 0x1 PUSH1 0xA0 SHL SUB DUP2 AND PUSH2 0x571 JUMPI PUSH1 0x40 MLOAD PUSH4 0x1E4FBDF7 PUSH1 0xE0 SHL DUP2 MSTORE PUSH0 PUSH1 0x4 DUP3 ADD MSTORE PUSH1 0x24 ADD PUSH2 0x360 JUMP JUMPDEST PUSH2 0x57A DUP2 PUSH2 0xCE3 JUMP JUMPDEST POP JUMP JUMPDEST PUSH0 SLOAD PUSH1 0x1 PUSH1 0x1 PUSH1 0xA0 SHL SUB AND CALLER EQ PUSH2 0x421 JUMPI PUSH1 0x40 MLOAD PUSH4 0x118CDAA7 PUSH1 0xE0 SHL DUP2 MSTORE CALLER PUSH1 0x4 DUP3 ADD MSTORE PUSH1 0x24 ADD PUSH2 0x360 JUMP JUMPDEST PUSH2 0x5B1 PUSH2 0xD71 JUMP JUMPDEST PUSH1 0x2 PUSH0 DUP1 MLOAD PUSH1 0x20 PUSH2 0x18EB DUP4 CODECOPY DUP2 MLOAD SWAP2 MSTORE SSTORE JUMP JUMPDEST PUSH0 PUSH1 0x1 PUSH0 DUP4 PUSH1 0x2 DUP2 GT ISZERO PUSH2 0x5DA JUMPI PUSH2 0x5DA PUSH2 0x1616 JUMP JUMPDEST PUSH1 0x2 DUP2 GT ISZERO PUSH2 0x5EB JUMPI PUSH2 0x5EB PUSH2 0x1616 JUMP JUMPDEST DUP2 MSTORE PUSH1 0x20 DUP1 DUP3 ADD SWAP3 SWAP1 SWAP3 MSTORE PUSH1 0x40 SWAP1 DUP2 ADD PUSH0 KECCAK256 DUP2 MLOAD PUSH1 0x80 DUP2 ADD DUP4 MSTORE DUP2 SLOAD DUP1 DUP3 MSTORE PUSH1 0x1 SWAP1 SWAP3 ADD SLOAD PUSH1 0xFF DUP1 DUP3 AND SWAP6 DUP4 ADD SWAP6 SWAP1 SWAP6 MSTORE PUSH2 0x100 DUP2 DIV DUP6 AND SWAP4 DUP3 ADD SWAP4 SWAP1 SWAP4 MSTORE PUSH3 0x10000 SWAP1 SWAP3 DIV SWAP1 SWAP3 AND ISZERO ISZERO PUSH1 0x60 DUP3 ADD MSTORE SWAP2 POP CALLVALUE LT ISZERO PUSH2 0x669 JUMPI DUP1 MLOAD PUSH1 0x40 MLOAD PUSH4 0xB99E2AB7 PUSH1 0xE0 SHL DUP2 MSTORE CALLVALUE PUSH1 0x4 DUP3 ADD MSTORE PUSH1 0x24 DUP2 ADD SWAP2 SWAP1 SWAP2 MSTORE PUSH1 0x44 ADD PUSH2 0x360 JUMP JUMPDEST PUSH0 PUSH2 0x675 PUSH1 0x1 NUMBER PUSH2 0x168F JUMP JUMPDEST PUSH1 0x40 DUP1 MLOAD SWAP2 BLOCKHASH PUSH1 0x20 DUP4 ADD MSTORE PUSH12 0xFFFFFFFFFFFFFFFFFFFFFFFF NOT CALLER PUSH1 0x60 SHL AND SWAP1 DUP3 ADD MSTORE TIMESTAMP PUSH1 0x54 DUP3 ADD MSTORE PREVRANDAO PUSH1 0x74 DUP3 ADD MSTORE PUSH1 0x94 ADD PUSH1 0x40 MLOAD PUSH1 0x20 DUP2 DUP4 SUB SUB DUP2 MSTORE SWAP1 PUSH1 0x40 MSTORE DUP1 MLOAD SWAP1 PUSH1 0x20 ADD KECCAK256 PUSH0 SHR SWAP1 POP PUSH0 PUSH2 0x6CA CALLER PUSH2 0xD32 JUMP JUMPDEST SWAP1 POP PUSH0 DUP4 PUSH1 0x20 ADD MLOAD PUSH1 0xFF AND PUSH8 0xFFFFFFFFFFFFFFFF DUP2 GT ISZERO PUSH2 0x6ED JUMPI PUSH2 0x6ED PUSH2 0x16A8 JUMP JUMPDEST PUSH1 0x40 MLOAD SWAP1 DUP1 DUP3 MSTORE DUP1 PUSH1 0x20 MUL PUSH1 0x20 ADD DUP3 ADD PUSH1 0x40 MSTORE DUP1 ISZERO PUSH2 0x716 JUMPI DUP2 PUSH1 0x20 ADD PUSH1 0x20 DUP3 MUL DUP1 CALLDATASIZE DUP4 CALLDATACOPY ADD SWAP1 POP JUMPDEST POP SWAP1 POP PUSH2 0x721 PUSH2 0xDA0 JUMP JUMPDEST PUSH32 0x4739AD6010ED047849BA10E67D99DE2BAD0C45471B38F28E03ECC0EDE12639AC PUSH0 DUP1 DUP1 JUMPDEST DUP8 PUSH1 0x40 ADD MLOAD PUSH1 0xFF AND DUP2 LT ISZERO PUSH2 0x83D JUMPI PUSH0 PUSH2 0x763 PUSH1 0x1 DUP10 DUP6 DUP9 PUSH2 0xE0E JUMP JUMPDEST SWAP1 POP DUP1 DUP7 DUP5 DUP2 MLOAD DUP2 LT PUSH2 0x778 JUMPI PUSH2 0x778 PUSH2 0x16BC JUMP JUMPDEST PUSH1 0x20 SWAP1 DUP2 MUL SWAP2 SWAP1 SWAP2 ADD ADD MSTORE PUSH1 0x3 PUSH1 0x40 MLOAD PUSH4 0x48758697 PUSH1 0xE0 SHL DUP2 MSTORE PUSH1 0x4 DUP2 ADD DUP4 SWAP1 MSTORE PUSH32 0x0 PUSH1 0x1 PUSH1 0x1 PUSH1 0xA0 SHL SUB AND SWAP1 PUSH4 0x48758697 SWAP1 PUSH1 0x24 ADD PUSH1 0x20 PUSH1 0x40 MLOAD DUP1 DUP4 SUB DUP2 DUP7 GAS STATICCALL ISZERO DUP1 ISZERO PUSH2 0x7E8 JUMPI RETURNDATASIZE PUSH0 DUP1 RETURNDATACOPY RETURNDATASIZE PUSH0 REVERT JUMPDEST POP POP POP POP PUSH1 0x40 MLOAD RETURNDATASIZE PUSH1 0x1F NOT PUSH1 0x1F DUP3 ADD AND DUP3 ADD DUP1 PUSH1 0x40 MSTORE POP DUP2 ADD SWAP1 PUSH2 0x80C SWAP2 SWAP1 PUSH2 0x16D0 JUMP JUMPDEST PUSH1 0x3 DUP2 GT ISZERO PUSH2 0x81D JUMPI PUSH2 0x81D PUSH2 0x1616 JUMP JUMPDEST SUB PUSH2 0x827 JUMPI PUSH1 0x1 SWAP4 POP JUMPDEST DUP3 PUSH2 0x831 DUP2 PUSH2 0x16EE JUMP JUMPDEST SWAP4 POP POP POP PUSH1 0x1 ADD PUSH2 0x746 JUMP JUMPDEST POP DUP7 PUSH1 0x60 ADD MLOAD ISZERO PUSH2 0x929 JUMPI PUSH0 PUSH2 0x856 PUSH1 0x2 DUP9 DUP5 DUP8 PUSH2 0xE0E JUMP JUMPDEST SWAP1 POP DUP1 DUP6 DUP4 DUP2 MLOAD DUP2 LT PUSH2 0x86B JUMPI PUSH2 0x86B PUSH2 0x16BC JUMP JUMPDEST PUSH1 0x20 SWAP1 DUP2 MUL SWAP2 SWAP1 SWAP2 ADD ADD MSTORE PUSH1 0x3 PUSH1 0x40 MLOAD PUSH4 0x48758697 PUSH1 0xE0 SHL DUP2 MSTORE PUSH1 0x4 DUP2 ADD DUP4 SWAP1 MSTORE PUSH32 0x0 PUSH1 0x1 PUSH1 0x1 PUSH1 0xA0 SHL SUB AND SWAP1 PUSH4 0x48758697 SWAP1 PUSH1 0x24 ADD PUSH1 0x20 PUSH1 0x40 MLOAD DUP1 DUP4 SUB DUP2 DUP7 GAS STATICCALL ISZERO DUP1 ISZERO PUSH2 0x8DB JUMPI RETURNDATASIZE PUSH0 DUP1 RETURNDATACOPY RETURNDATASIZE PUSH0 REVERT JUMPDEST POP POP POP POP PUSH1 0x40 MLOAD RETURNDATASIZE PUSH1 0x1F NOT PUSH1 0x1F DUP3 ADD AND DUP3 ADD DUP1 PUSH1 0x40 MSTORE POP DUP2 ADD SWAP1 PUSH2 0x8FF SWAP2 SWAP1 PUSH2 0x16D0 JUMP JUMPDEST PUSH1 0x3 DUP2 GT ISZERO PUSH2 0x910 JUMPI PUSH2 0x910 PUSH2 0x1616 JUMP JUMPDEST SUB PUSH2 0x91A JUMPI PUSH1 0x1 SWAP3 POP JUMPDEST DUP2 PUSH2 0x924 DUP2 PUSH2 0x16EE JUMP JUMPDEST SWAP3 POP POP POP JUMPDEST DUP1 JUMPDEST DUP8 PUSH1 0x20 ADD MLOAD PUSH1 0xFF AND DUP2 LT ISZERO PUSH2 0x9A8 JUMPI PUSH0 PUSH2 0x946 DUP9 DUP4 DUP10 PUSH2 0xF20 JUMP JUMPDEST SWAP1 POP PUSH2 0x951 DUP2 PUSH2 0xFED JUMP JUMPDEST SWAP1 POP PUSH0 PUSH2 0x960 DUP3 DUP11 DUP6 DUP10 PUSH2 0x1105 JUMP JUMPDEST SWAP1 POP DUP1 DUP8 DUP5 DUP2 MLOAD DUP2 LT PUSH2 0x975 JUMPI PUSH2 0x975 PUSH2 0x16BC JUMP JUMPDEST PUSH1 0x20 SWAP1 DUP2 MUL SWAP2 SWAP1 SWAP2 ADD ADD MSTORE PUSH1 0x3 DUP3 PUSH1 0x3 DUP2 GT ISZERO PUSH2 0x994 JUMPI PUSH2 0x994 PUSH2 0x1616 JUMP JUMPDEST SUB PUSH2 0x99E JUMPI PUSH1 0x1 SWAP5 POP JUMPDEST POP POP PUSH1 0x1 ADD PUSH2 0x92B JUMP JUMPDEST POP DUP2 ISZERO PUSH2 0x9C3 JUMPI CALLER PUSH0 SWAP1 DUP2 MSTORE PUSH1 0x2 PUSH1 0x20 MSTORE PUSH1 0x40 DUP2 KECCAK256 SSTORE PUSH2 0x9E3 JUMP JUMPDEST CALLER PUSH0 SWAP1 DUP2 MSTORE PUSH1 0x2 PUSH1 0x20 MSTORE PUSH1 0x40 DUP2 KECCAK256 DUP1 SLOAD SWAP2 PUSH2 0x9DD DUP4 PUSH2 0x16EE JUMP JUMPDEST SWAP2 SWAP1 POP SSTORE POP JUMPDEST PUSH0 DUP8 PUSH1 0x20 ADD MLOAD PUSH1 0xFF AND PUSH8 0xFFFFFFFFFFFFFFFF DUP2 GT ISZERO PUSH2 0xA04 JUMPI PUSH2 0xA04 PUSH2 0x16A8 JUMP JUMPDEST PUSH1 0x40 MLOAD SWAP1 DUP1 DUP3 MSTORE DUP1 PUSH1 0x20 MUL PUSH1 0x20 ADD DUP3 ADD PUSH1 0x40 MSTORE DUP1 ISZERO PUSH2 0xA2D JUMPI DUP2 PUSH1 0x20 ADD PUSH1 0x20 DUP3 MUL DUP1 CALLDATASIZE DUP4 CALLDATACOPY ADD SWAP1 POP JUMPDEST POP SWAP1 POP PUSH0 JUMPDEST DUP9 PUSH1 0x20 ADD MLOAD PUSH1 0xFF AND DUP2 LT ISZERO PUSH2 0xB69 JUMPI PUSH1 0x1 DUP3 DUP3 DUP2 MLOAD DUP2 LT PUSH2 0xA55 JUMPI PUSH2 0xA55 PUSH2 0x16BC JUMP JUMPDEST PUSH1 0x20 MUL PUSH1 0x20 ADD ADD DUP2 DUP2 MSTORE POP POP DUP6 DUP2 DUP2 MLOAD DUP2 LT PUSH2 0xA73 JUMPI PUSH2 0xA73 PUSH2 0x16BC JUMP JUMPDEST PUSH1 0x20 MUL PUSH1 0x20 ADD ADD MLOAD CALLER PUSH1 0x1 PUSH1 0x1 PUSH1 0xA0 SHL SUB AND PUSH32 0x140538F7003346D4628961EF82B7128021C494A8F1881CA2A8F24D8E743A4F05 PUSH32 0x0 PUSH1 0x1 PUSH1 0x1 PUSH1 0xA0 SHL SUB AND PUSH4 0x48758697 DUP11 DUP7 DUP2 MLOAD DUP2 LT PUSH2 0xAE7 JUMPI PUSH2 0xAE7 PUSH2 0x16BC JUMP JUMPDEST PUSH1 0x20 MUL PUSH1 0x20 ADD ADD MLOAD PUSH1 0x40 MLOAD DUP3 PUSH4 0xFFFFFFFF AND PUSH1 0xE0 SHL DUP2 MSTORE PUSH1 0x4 ADD PUSH2 0xB0D SWAP2 DUP2 MSTORE PUSH1 0x20 ADD SWAP1 JUMP JUMPDEST PUSH1 0x20 PUSH1 0x40 MLOAD DUP1 DUP4 SUB DUP2 DUP7 GAS STATICCALL ISZERO DUP1 ISZERO PUSH2 0xB28 JUMPI RETURNDATASIZE PUSH0 DUP1 RETURNDATACOPY RETURNDATASIZE PUSH0 REVERT JUMPDEST POP POP POP POP PUSH1 0x40 MLOAD RETURNDATASIZE PUSH1 0x1F NOT PUSH1 0x1F DUP3 ADD AND DUP3 ADD DUP1 PUSH1 0x40 MSTORE POP DUP2 ADD SWAP1 PUSH2 0xB4C SWAP2 SWAP1 PUSH2 0x16D0 JUMP JUMPDEST PUSH1 0x40 MLOAD PUSH2 0xB59 SWAP2 SWAP1 PUSH2 0x1716 JUMP JUMPDEST PUSH1 0x40 MLOAD DUP1 SWAP2 SUB SWAP1 LOG3 PUSH1 0x1 ADD PUSH2 0xA32 JUMP JUMPDEST POP PUSH1 0x40 MLOAD PUSH4 0xDFE246D PUSH1 0xE0 SHL DUP2 MSTORE PUSH1 0x1 PUSH1 0x1 PUSH1 0xA0 SHL SUB PUSH32 0x0 AND SWAP1 PUSH4 0xDFE246D SWAP1 PUSH2 0xBBA SWAP1 CALLER SWAP1 DUP10 SWAP1 DUP7 SWAP1 PUSH1 0x4 ADD PUSH2 0x175E JUMP JUMPDEST PUSH0 PUSH1 0x40 MLOAD DUP1 DUP4 SUB DUP2 PUSH0 DUP8 DUP1 EXTCODESIZE ISZERO DUP1 ISZERO PUSH2 0xBD1 JUMPI PUSH0 DUP1 REVERT JUMPDEST POP GAS CALL ISZERO DUP1 ISZERO PUSH2 0xBE3 JUMPI RETURNDATASIZE PUSH0 DUP1 RETURNDATACOPY RETURNDATASIZE PUSH0 REVERT JUMPDEST POP POP POP POP CALLER PUSH1 0x1 PUSH1 0x1 PUSH1 0xA0 SHL SUB AND PUSH32 0x8EC9A35D54AF30762858796FA12F9026597E6E747373346E2D9E7A78D9F1252B DUP11 DUP8 PUSH1 0x40 MLOAD PUSH2 0xC22 SWAP3 SWAP2 SWAP1 PUSH2 0x1793 JUMP JUMPDEST PUSH1 0x40 MLOAD DUP1 SWAP2 SUB SWAP1 LOG2 DUP8 MLOAD PUSH0 SWAP1 PUSH2 0xC38 SWAP1 CALLVALUE PUSH2 0x168F JUMP JUMPDEST SWAP1 POP DUP1 ISZERO PUSH2 0xCD7 JUMPI PUSH1 0x40 MLOAD PUSH0 SWAP1 CALLER SWAP1 DUP4 SWAP1 DUP4 DUP2 DUP2 DUP2 DUP6 DUP8 GAS CALL SWAP3 POP POP POP RETURNDATASIZE DUP1 PUSH0 DUP2 EQ PUSH2 0xC7F JUMPI PUSH1 0x40 MLOAD SWAP2 POP PUSH1 0x1F NOT PUSH1 0x3F RETURNDATASIZE ADD AND DUP3 ADD PUSH1 0x40 MSTORE RETURNDATASIZE DUP3 MSTORE RETURNDATASIZE PUSH0 PUSH1 0x20 DUP5 ADD RETURNDATACOPY PUSH2 0xC84 JUMP JUMPDEST PUSH1 0x60 SWAP2 POP JUMPDEST POP POP SWAP1 POP DUP1 PUSH2 0xCD5 JUMPI PUSH1 0x40 MLOAD PUSH3 0x461BCD PUSH1 0xE5 SHL DUP2 MSTORE PUSH1 0x20 PUSH1 0x4 DUP3 ADD MSTORE PUSH1 0x18 PUSH1 0x24 DUP3 ADD MSTORE PUSH32 0x47616368615061636B3A20726566756E64206661696C65640000000000000000 PUSH1 0x44 DUP3 ADD MSTORE PUSH1 0x64 ADD PUSH2 0x360 JUMP JUMPDEST POP JUMPDEST POP POP POP POP POP POP POP POP POP POP JUMP JUMPDEST PUSH0 DUP1 SLOAD PUSH1 0x1 PUSH1 0x1 PUSH1 0xA0 SHL SUB DUP4 DUP2 AND PUSH1 0x1 PUSH1 0x1 PUSH1 0xA0 SHL SUB NOT DUP4 AND DUP2 OR DUP5 SSTORE PUSH1 0x40 MLOAD SWAP2 SWAP1 SWAP3 AND SWAP3 DUP4 SWAP2 PUSH32 0x8BE0079C531659141344CD1FD0A4F28419497F9722A3DAAFE3B4186F6B6457E0 SWAP2 SWAP1 LOG3 POP POP JUMP JUMPDEST PUSH1 0x1 PUSH1 0x1 PUSH1 0xA0 SHL SUB DUP2 AND PUSH0 SWAP1 DUP2 MSTORE PUSH1 0x2 PUSH1 0x20 MSTORE PUSH1 0x40 DUP2 KECCAK256 SLOAD PUSH1 0x32 DUP2 GT PUSH2 0xD5A JUMPI POP PUSH0 SWAP3 SWAP2 POP POP JUMP JUMPDEST PUSH1 0x14 PUSH2 0xD67 PUSH1 0x32 DUP4 PUSH2 0x168F JUMP JUMPDEST PUSH2 0x539 SWAP2 SWAP1 PUSH2 0x17B2 JUMP JUMPDEST PUSH0 DUP1 MLOAD PUSH1 0x20 PUSH2 0x18EB DUP4 CODECOPY DUP2 MLOAD SWAP2 MSTORE SLOAD PUSH1 0x2 SUB PUSH2 0x421 JUMPI PUSH1 0x40 MLOAD PUSH4 0x3EE5AEB5 PUSH1 0xE0 SHL DUP2 MSTORE PUSH1 0x4 ADD PUSH1 0x40 MLOAD DUP1 SWAP2 SUB SWAP1 REVERT JUMPDEST PUSH32 0x4739AD6010ED047849BA10E67D99DE2BAD0C45471B38F28E03ECC0EDE12639AC PUSH1 0x1 JUMPDEST PUSH1 0x30 DUP2 GT PUSH2 0xE0A JUMPI PUSH0 DUP2 DUP2 MSTORE PUSH1 0x20 DUP4 SWAP1 MSTORE PUSH1 0x40 SWAP1 KECCAK256 SLOAD PUSH1 0xFF AND ISZERO PUSH2 0xDF8 JUMPI PUSH0 DUP2 DUP2 MSTORE PUSH1 0x20 DUP4 SWAP1 MSTORE PUSH1 0x40 SWAP1 KECCAK256 DUP1 SLOAD PUSH1 0xFF NOT AND SWAP1 SSTORE JUMPDEST DUP1 PUSH2 0xE02 DUP2 PUSH2 0x16EE JUMP JUMPDEST SWAP2 POP POP PUSH2 0xDC4 JUMP JUMPDEST POP POP JUMP JUMPDEST PUSH0 DUP1 PUSH2 0x2710 DUP6 DUP6 PUSH1 0x40 MLOAD PUSH1 0x20 ADD PUSH2 0xE42 SWAP3 SWAP2 SWAP1 SWAP2 DUP3 MSTORE PUSH1 0x20 DUP3 ADD MSTORE PUSH10 0x19DD585C985B9D195959 PUSH1 0xB2 SHL PUSH1 0x40 DUP3 ADD MSTORE PUSH1 0x4A ADD SWAP1 JUMP JUMPDEST PUSH1 0x40 MLOAD PUSH1 0x20 DUP2 DUP4 SUB SUB DUP2 MSTORE SWAP1 PUSH1 0x40 MSTORE DUP1 MLOAD SWAP1 PUSH1 0x20 ADD KECCAK256 PUSH0 SHR PUSH2 0xE64 SWAP2 SWAP1 PUSH2 0x17C9 JUMP JUMPDEST SWAP1 POP DUP6 PUSH1 0x1 DUP8 PUSH1 0x3 DUP2 GT ISZERO PUSH2 0xE7B JUMPI PUSH2 0xE7B PUSH2 0x1616 JUMP JUMPDEST SUB PUSH2 0xEA3 JUMPI PUSH2 0x26FC DUP3 LT PUSH2 0xE91 JUMPI POP PUSH1 0x3 PUSH2 0xEC9 JUMP JUMPDEST PUSH2 0x2580 DUP3 LT PUSH2 0xE9E JUMPI POP PUSH1 0x2 JUMPDEST PUSH2 0xEC9 JUMP JUMPDEST PUSH1 0x2 DUP8 PUSH1 0x3 DUP2 GT ISZERO PUSH2 0xEB7 JUMPI PUSH2 0xEB7 PUSH2 0x1616 JUMP JUMPDEST SUB PUSH2 0xEC9 JUMPI PUSH2 0x26FC DUP3 LT PUSH2 0xEC9 JUMPI POP PUSH1 0x3 JUMPDEST PUSH2 0xED2 DUP2 PUSH2 0xFED JUMP JUMPDEST SWAP1 POP DUP7 PUSH1 0x3 DUP2 GT ISZERO PUSH2 0xEE6 JUMPI PUSH2 0xEE6 PUSH2 0x1616 JUMP JUMPDEST PUSH1 0xFF AND DUP2 PUSH1 0x3 DUP2 GT ISZERO PUSH2 0xEFB JUMPI PUSH2 0xEFB PUSH2 0x1616 JUMP JUMPDEST PUSH1 0xFF AND LT ISZERO PUSH2 0xF07 JUMPI POP DUP6 JUMPDEST PUSH2 0xF13 DUP2 DUP8 DUP8 DUP8 PUSH2 0x1105 JUMP JUMPDEST SWAP3 POP POP POP JUMPDEST SWAP5 SWAP4 POP POP POP POP JUMP JUMPDEST PUSH0 DUP1 PUSH2 0x2710 DUP6 DUP6 PUSH1 0x40 MLOAD PUSH1 0x20 ADD PUSH2 0xF50 SWAP3 SWAP2 SWAP1 SWAP2 DUP3 MSTORE PUSH1 0x20 DUP3 ADD MSTORE PUSH6 0x726172697479 PUSH1 0xD0 SHL PUSH1 0x40 DUP3 ADD MSTORE PUSH1 0x46 ADD SWAP1 JUMP JUMPDEST PUSH1 0x40 MLOAD PUSH1 0x20 DUP2 DUP4 SUB SUB DUP2 MSTORE SWAP1 PUSH1 0x40 MSTORE DUP1 MLOAD SWAP1 PUSH1 0x20 ADD KECCAK256 PUSH0 SHR PUSH2 0xF72 SWAP2 SWAP1 PUSH2 0x17C9 JUMP JUMPDEST SWAP1 POP PUSH0 PUSH2 0xF83 PUSH2 0x26FC PUSH2 0x2710 PUSH2 0x166D JUMP JUMPDEST PUSH2 0xFFFF AND DUP5 LT ISZERO PUSH2 0xF9F JUMPI PUSH2 0xF9A DUP5 PUSH2 0x26FC PUSH2 0x168F JUMP JUMPDEST PUSH2 0xFA3 JUMP JUMPDEST PUSH2 0x26FC JUMPDEST SWAP1 POP PUSH2 0x2008 DUP3 LT ISZERO PUSH2 0xFB9 JUMPI PUSH0 SWAP3 POP POP POP PUSH2 0x539 JUMP JUMPDEST PUSH2 0x2580 DUP3 LT ISZERO PUSH2 0xFCE JUMPI PUSH1 0x1 SWAP3 POP POP POP PUSH2 0x539 JUMP JUMPDEST DUP1 DUP3 LT ISZERO PUSH2 0xFE1 JUMPI PUSH1 0x2 SWAP3 POP POP POP PUSH2 0x539 JUMP JUMPDEST POP PUSH1 0x3 SWAP6 SWAP5 POP POP POP POP POP JUMP JUMPDEST PUSH0 PUSH1 0x3 DUP3 PUSH1 0x3 DUP2 GT ISZERO PUSH2 0x1002 JUMPI PUSH2 0x1002 PUSH2 0x1616 JUMP JUMPDEST EQ DUP1 ISZERO PUSH2 0x1098 JUMPI POP PUSH1 0x40 MLOAD PUSH4 0x93292FA3 PUSH1 0xE0 SHL DUP2 MSTORE PUSH1 0x1 PUSH1 0x1 PUSH1 0xA0 SHL SUB PUSH32 0x0 AND SWAP1 PUSH4 0x93292FA3 SWAP1 PUSH2 0x1057 SWAP1 PUSH1 0x3 SWAP1 PUSH1 0x4 ADD PUSH2 0x1716 JUMP JUMPDEST PUSH1 0x20 PUSH1 0x40 MLOAD DUP1 DUP4 SUB DUP2 DUP7 GAS STATICCALL ISZERO DUP1 ISZERO PUSH2 0x1072 JUMPI RETURNDATASIZE PUSH0 DUP1 RETURNDATACOPY RETURNDATASIZE PUSH0 REVERT JUMPDEST POP POP POP POP PUSH1 0x40 MLOAD RETURNDATASIZE PUSH1 0x1F NOT PUSH1 0x1F DUP3 ADD AND DUP3 ADD DUP1 PUSH1 0x40 MSTORE POP DUP2 ADD SWAP1 PUSH2 0x1096 SWAP2 SWAP1 PUSH2 0x17E8 JUMP JUMPDEST ISZERO JUMPDEST ISZERO PUSH2 0x10A2 JUMPI PUSH1 0x2 SWAP2 POP JUMPDEST PUSH1 0x2 DUP3 PUSH1 0x3 DUP2 GT ISZERO PUSH2 0x10B6 JUMPI PUSH2 0x10B6 PUSH2 0x1616 JUMP JUMPDEST EQ DUP1 ISZERO PUSH2 0x10C8 JUMPI POP PUSH2 0x10C8 PUSH1 0x2 PUSH2 0x1438 JUMP JUMPDEST ISZERO PUSH2 0x10D2 JUMPI PUSH1 0x1 SWAP2 POP JUMPDEST PUSH1 0x1 DUP3 PUSH1 0x3 DUP2 GT ISZERO PUSH2 0x10E6 JUMPI PUSH2 0x10E6 PUSH2 0x1616 JUMP JUMPDEST EQ DUP1 ISZERO PUSH2 0x10F8 JUMPI POP PUSH2 0x10F8 PUSH1 0x1 PUSH2 0x1438 JUMP JUMPDEST ISZERO PUSH2 0x1101 JUMPI PUSH0 SWAP2 POP JUMPDEST POP SWAP1 JUMP JUMPDEST PUSH0 DUP1 PUSH32 0x0 PUSH1 0x1 PUSH1 0x1 PUSH1 0xA0 SHL SUB AND PUSH4 0x2FBFBE84 DUP8 PUSH1 0x40 MLOAD DUP3 PUSH4 0xFFFFFFFF AND PUSH1 0xE0 SHL DUP2 MSTORE PUSH1 0x4 ADD PUSH2 0x1153 SWAP2 SWAP1 PUSH2 0x1716 JUMP JUMPDEST PUSH0 PUSH1 0x40 MLOAD DUP1 DUP4 SUB DUP2 DUP7 GAS STATICCALL ISZERO DUP1 ISZERO PUSH2 0x116D JUMPI RETURNDATASIZE PUSH0 DUP1 RETURNDATACOPY RETURNDATASIZE PUSH0 REVERT JUMPDEST POP POP POP POP PUSH1 0x40 MLOAD RETURNDATASIZE PUSH0 DUP3 RETURNDATACOPY PUSH1 0x1F RETURNDATASIZE SWAP1 DUP2 ADD PUSH1 0x1F NOT AND DUP3 ADD PUSH1 0x40 MSTORE PUSH2 0x1194 SWAP2 SWAP1 DUP2 ADD SWAP1 PUSH2 0x17FF JUMP JUMPDEST SWAP1 POP PUSH0 JUMPDEST DUP2 MLOAD DUP2 LT ISZERO PUSH2 0x1318 JUMPI PUSH1 0x1 PUSH1 0x1 PUSH1 0xA0 SHL SUB PUSH32 0x0 AND PUSH4 0x3FDD1C90 DUP9 DUP9 PUSH2 0x11DE DUP6 PUSH2 0x3E8 PUSH2 0x17B2 JUMP JUMPDEST PUSH2 0x11E8 SWAP1 DUP11 PUSH2 0x18B8 JUMP JUMPDEST PUSH1 0x40 MLOAD DUP5 PUSH4 0xFFFFFFFF AND PUSH1 0xE0 SHL DUP2 MSTORE PUSH1 0x4 ADD PUSH2 0x1206 SWAP4 SWAP3 SWAP2 SWAP1 PUSH2 0x18CB JUMP JUMPDEST PUSH1 0x20 PUSH1 0x40 MLOAD DUP1 DUP4 SUB DUP2 DUP7 GAS STATICCALL ISZERO DUP1 ISZERO PUSH2 0x1221 JUMPI RETURNDATASIZE PUSH0 DUP1 RETURNDATACOPY RETURNDATASIZE PUSH0 REVERT JUMPDEST POP POP POP POP PUSH1 0x40 MLOAD RETURNDATASIZE PUSH1 0x1F NOT PUSH1 0x1F DUP3 ADD AND DUP3 ADD DUP1 PUSH1 0x40 MSTORE POP DUP2 ADD SWAP1 PUSH2 0x1245 SWAP2 SWAP1 PUSH2 0x17E8 JUMP JUMPDEST PUSH0 DUP2 DUP2 MSTORE PUSH1 0x20 DUP7 SWAP1 MSTORE PUSH1 0x40 SWAP1 KECCAK256 SLOAD SWAP1 SWAP4 POP PUSH1 0xFF AND ISZERO DUP1 ISZERO PUSH2 0x12EC JUMPI POP PUSH1 0x40 MLOAD PUSH4 0x23FED20D PUSH1 0xE1 SHL DUP2 MSTORE PUSH1 0x4 DUP2 ADD DUP5 SWAP1 MSTORE PUSH0 SWAP1 PUSH32 0x0 PUSH1 0x1 PUSH1 0x1 PUSH1 0xA0 SHL SUB AND SWAP1 PUSH4 0x47FDA41A SWAP1 PUSH1 0x24 ADD PUSH1 0x20 PUSH1 0x40 MLOAD DUP1 DUP4 SUB DUP2 DUP7 GAS STATICCALL ISZERO DUP1 ISZERO PUSH2 0x12C6 JUMPI RETURNDATASIZE PUSH0 DUP1 RETURNDATACOPY RETURNDATASIZE PUSH0 REVERT JUMPDEST POP POP POP POP PUSH1 0x40 MLOAD RETURNDATASIZE PUSH1 0x1F NOT PUSH1 0x1F DUP3 ADD AND DUP3 ADD DUP1 PUSH1 0x40 MSTORE POP DUP2 ADD SWAP1 PUSH2 0x12EA SWAP2 SWAP1 PUSH2 0x17E8 JUMP JUMPDEST GT JUMPDEST ISZERO PUSH2 0x1310 JUMPI POP POP PUSH0 DUP2 DUP2 MSTORE PUSH1 0x20 DUP4 SWAP1 MSTORE PUSH1 0x40 SWAP1 KECCAK256 DUP1 SLOAD PUSH1 0xFF NOT AND PUSH1 0x1 OR SWAP1 SSTORE PUSH2 0xF18 JUMP JUMPDEST PUSH1 0x1 ADD PUSH2 0x1198 JUMP JUMPDEST POP PUSH0 JUMPDEST DUP2 MLOAD DUP2 LT ISZERO PUSH2 0x1415 JUMPI DUP2 DUP2 DUP2 MLOAD DUP2 LT PUSH2 0x1336 JUMPI PUSH2 0x1336 PUSH2 0x16BC JUMP JUMPDEST PUSH1 0x20 SWAP1 DUP2 MUL SWAP2 SWAP1 SWAP2 ADD DUP2 ADD MLOAD PUSH0 DUP2 DUP2 MSTORE SWAP2 DUP7 SWAP1 MSTORE PUSH1 0x40 SWAP1 SWAP2 KECCAK256 SLOAD SWAP1 SWAP4 POP PUSH1 0xFF AND ISZERO DUP1 ISZERO PUSH2 0x13E9 JUMPI POP PUSH1 0x40 MLOAD PUSH4 0x23FED20D PUSH1 0xE1 SHL DUP2 MSTORE PUSH1 0x4 DUP2 ADD DUP5 SWAP1 MSTORE PUSH0 SWAP1 PUSH32 0x0 PUSH1 0x1 PUSH1 0x1 PUSH1 0xA0 SHL SUB AND SWAP1 PUSH4 0x47FDA41A SWAP1 PUSH1 0x24 ADD PUSH1 0x20 PUSH1 0x40 MLOAD DUP1 DUP4 SUB DUP2 DUP7 GAS STATICCALL ISZERO DUP1 ISZERO PUSH2 0x13C3 JUMPI RETURNDATASIZE PUSH0 DUP1 RETURNDATACOPY RETURNDATASIZE PUSH0 REVERT JUMPDEST POP POP POP POP PUSH1 0x40 MLOAD RETURNDATASIZE PUSH1 0x1F NOT PUSH1 0x1F DUP3 ADD AND DUP3 ADD DUP1 PUSH1 0x40 MSTORE POP DUP2 ADD SWAP1 PUSH2 0x13E7 SWAP2 SWAP1 PUSH2 0x17E8 JUMP JUMPDEST GT JUMPDEST ISZERO PUSH2 0x140D JUMPI POP POP PUSH0 DUP2 DUP2 MSTORE PUSH1 0x20 DUP4 SWAP1 MSTORE PUSH1 0x40 SWAP1 KECCAK256 DUP1 SLOAD PUSH1 0xFF NOT AND PUSH1 0x1 OR SWAP1 SSTORE PUSH2 0xF18 JUMP JUMPDEST PUSH1 0x1 ADD PUSH2 0x131B JUMP JUMPDEST POP PUSH2 0x142E PUSH0 DUP7 PUSH2 0x1428 DUP8 PUSH3 0x1869F PUSH2 0x18B8 JUMP JUMPDEST DUP7 PUSH2 0x1105 JUMP JUMPDEST SWAP7 SWAP6 POP POP POP POP POP POP JUMP JUMPDEST PUSH0 DUP1 PUSH32 0x0 PUSH1 0x1 PUSH1 0x1 PUSH1 0xA0 SHL SUB AND PUSH4 0x2FBFBE84 DUP5 PUSH1 0x40 MLOAD DUP3 PUSH4 0xFFFFFFFF AND PUSH1 0xE0 SHL DUP2 MSTORE PUSH1 0x4 ADD PUSH2 0x1486 SWAP2 SWAP1 PUSH2 0x1716 JUMP JUMPDEST PUSH0 PUSH1 0x40 MLOAD DUP1 DUP4 SUB DUP2 DUP7 GAS STATICCALL ISZERO DUP1 ISZERO PUSH2 0x14A0 JUMPI RETURNDATASIZE PUSH0 DUP1 RETURNDATACOPY RETURNDATASIZE PUSH0 REVERT JUMPDEST POP POP POP POP PUSH1 0x40 MLOAD RETURNDATASIZE PUSH0 DUP3 RETURNDATACOPY PUSH1 0x1F RETURNDATASIZE SWAP1 DUP2 ADD PUSH1 0x1F NOT AND DUP3 ADD PUSH1 0x40 MSTORE PUSH2 0x14C7 SWAP2 SWAP1 DUP2 ADD SWAP1 PUSH2 0x17FF JUMP JUMPDEST SWAP1 POP PUSH0 JUMPDEST DUP2 MLOAD DUP2 LT ISZERO PUSH2 0x1592 JUMPI PUSH0 PUSH32 0x0 PUSH1 0x1 PUSH1 0x1 PUSH1 0xA0 SHL SUB AND PUSH4 0x47FDA41A DUP5 DUP5 DUP2 MLOAD DUP2 LT PUSH2 0x1516 JUMPI PUSH2 0x1516 PUSH2 0x16BC JUMP JUMPDEST PUSH1 0x20 MUL PUSH1 0x20 ADD ADD MLOAD PUSH1 0x40 MLOAD DUP3 PUSH4 0xFFFFFFFF AND PUSH1 0xE0 SHL DUP2 MSTORE PUSH1 0x4 ADD PUSH2 0x153C SWAP2 DUP2 MSTORE PUSH1 0x20 ADD SWAP1 JUMP JUMPDEST PUSH1 0x20 PUSH1 0x40 MLOAD DUP1 DUP4 SUB DUP2 DUP7 GAS STATICCALL ISZERO DUP1 ISZERO PUSH2 0x1557 JUMPI RETURNDATASIZE PUSH0 DUP1 RETURNDATACOPY RETURNDATASIZE PUSH0 REVERT JUMPDEST POP POP POP POP PUSH1 0x40 MLOAD RETURNDATASIZE PUSH1 0x1F NOT PUSH1 0x1F DUP3 ADD AND DUP3 ADD DUP1 PUSH1 0x40 MSTORE POP DUP2 ADD SWAP1 PUSH2 0x157B SWAP2 SWAP1 PUSH2 0x17E8 JUMP JUMPDEST GT ISZERO PUSH2 0x158A JUMPI POP PUSH0 SWAP4 SWAP3 POP POP POP JUMP JUMPDEST PUSH1 0x1 ADD PUSH2 0x14CB JUMP JUMPDEST POP MLOAD ISZERO ISZERO SWAP3 SWAP2 POP POP JUMP JUMPDEST PUSH0 PUSH1 0x20 DUP3 DUP5 SUB SLT ISZERO PUSH2 0x15AC JUMPI PUSH0 DUP1 REVERT JUMPDEST DUP2 CALLDATALOAD PUSH1 0x1 PUSH1 0x1 PUSH1 0xA0 SHL SUB DUP2 AND DUP2 EQ PUSH2 0x539 JUMPI PUSH0 DUP1 REVERT JUMPDEST DUP1 CALLDATALOAD PUSH1 0x3 DUP2 LT PUSH2 0x15D0 JUMPI PUSH0 DUP1 REVERT JUMPDEST SWAP2 SWAP1 POP JUMP JUMPDEST PUSH0 DUP1 PUSH1 0x40 DUP4 DUP6 SUB SLT ISZERO PUSH2 0x15E6 JUMPI PUSH0 DUP1 REVERT JUMPDEST PUSH2 0x15EF DUP4 PUSH2 0x15C2 JUMP JUMPDEST SWAP5 PUSH1 0x20 SWAP4 SWAP1 SWAP4 ADD CALLDATALOAD SWAP4 POP POP POP JUMP JUMPDEST PUSH0 PUSH1 0x20 DUP3 DUP5 SUB SLT ISZERO PUSH2 0x160D JUMPI PUSH0 DUP1 REVERT JUMPDEST PUSH2 0x539 DUP3 PUSH2 0x15C2 JUMP JUMPDEST PUSH4 0x4E487B71 PUSH1 0xE0 SHL PUSH0 MSTORE PUSH1 0x21 PUSH1 0x4 MSTORE PUSH1 0x24 PUSH0 REVERT JUMPDEST PUSH1 0x3 DUP2 LT PUSH2 0x163A JUMPI PUSH2 0x163A PUSH2 0x1616 JUMP JUMPDEST SWAP1 MSTORE JUMP JUMPDEST PUSH1 0x40 DUP2 ADD PUSH2 0x164C DUP3 DUP6 PUSH2 0x162A JUMP JUMPDEST DUP3 PUSH1 0x20 DUP4 ADD MSTORE SWAP4 SWAP3 POP POP POP JUMP JUMPDEST PUSH4 0x4E487B71 PUSH1 0xE0 SHL PUSH0 MSTORE PUSH1 0x11 PUSH1 0x4 MSTORE PUSH1 0x24 PUSH0 REVERT JUMPDEST PUSH2 0xFFFF DUP3 DUP2 AND DUP3 DUP3 AND SUB SWAP1 DUP1 DUP3 GT ISZERO PUSH2 0x1688 JUMPI PUSH2 0x1688 PUSH2 0x1659 JUMP JUMPDEST POP SWAP3 SWAP2 POP POP JUMP JUMPDEST DUP2 DUP2 SUB DUP2 DUP2 GT ISZERO PUSH2 0x16A2 JUMPI PUSH2 0x16A2 PUSH2 0x1659 JUMP JUMPDEST SWAP3 SWAP2 POP POP JUMP JUMPDEST PUSH4 0x4E487B71 PUSH1 0xE0 SHL PUSH0 MSTORE PUSH1 0x41 PUSH1 0x4 MSTORE PUSH1 0x24 PUSH0 REVERT JUMPDEST PUSH4 0x4E487B71 PUSH1 0xE0 SHL PUSH0 MSTORE PUSH1 0x32 PUSH1 0x4 MSTORE PUSH1 0x24 PUSH0 REVERT JUMPDEST PUSH0 PUSH1 0x20 DUP3 DUP5 SUB SLT ISZERO PUSH2 0x16E0 JUMPI PUSH0 DUP1 REVERT JUMPDEST DUP2 MLOAD PUSH1 0x4 DUP2 LT PUSH2 0x539 JUMPI PUSH0 DUP1 REVERT JUMPDEST PUSH0 PUSH1 0x1 DUP3 ADD PUSH2 0x16FF JUMPI PUSH2 0x16FF PUSH2 0x1659 JUMP JUMPDEST POP PUSH1 0x1 ADD SWAP1 JUMP JUMPDEST PUSH1 0x4 DUP2 LT PUSH2 0x163A JUMPI PUSH2 0x163A PUSH2 0x1616 JUMP JUMPDEST PUSH1 0x20 DUP2 ADD PUSH2 0x16A2 DUP3 DUP5 PUSH2 0x1706 JUMP JUMPDEST PUSH0 DUP2 MLOAD DUP1 DUP5 MSTORE PUSH1 0x20 DUP1 DUP6 ADD SWAP5 POP PUSH1 0x20 DUP5 ADD PUSH0 JUMPDEST DUP4 DUP2 LT ISZERO PUSH2 0x1753 JUMPI DUP2 MLOAD DUP8 MSTORE SWAP6 DUP3 ADD SWAP6 SWAP1 DUP3 ADD SWAP1 PUSH1 0x1 ADD PUSH2 0x1737 JUMP JUMPDEST POP SWAP5 SWAP6 SWAP5 POP POP POP POP POP JUMP JUMPDEST PUSH1 0x1 PUSH1 0x1 PUSH1 0xA0 SHL SUB DUP5 AND DUP2 MSTORE PUSH1 0x60 PUSH1 0x20 DUP3 ADD DUP2 SWAP1 MSTORE PUSH0 SWAP1 PUSH2 0x1781 SWAP1 DUP4 ADD DUP6 PUSH2 0x1724 JUMP JUMPDEST DUP3 DUP2 SUB PUSH1 0x40 DUP5 ADD MSTORE PUSH2 0x142E DUP2 DUP6 PUSH2 0x1724 JUMP JUMPDEST PUSH2 0x179D DUP2 DUP5 PUSH2 0x162A JUMP JUMPDEST PUSH1 0x40 PUSH1 0x20 DUP3 ADD MSTORE PUSH0 PUSH2 0xF18 PUSH1 0x40 DUP4 ADD DUP5 PUSH2 0x1724 JUMP JUMPDEST DUP1 DUP3 MUL DUP2 ISZERO DUP3 DUP3 DIV DUP5 EQ OR PUSH2 0x16A2 JUMPI PUSH2 0x16A2 PUSH2 0x1659 JUMP JUMPDEST PUSH0 DUP3 PUSH2 0x17E3 JUMPI PUSH4 0x4E487B71 PUSH1 0xE0 SHL PUSH0 MSTORE PUSH1 0x12 PUSH1 0x4 MSTORE PUSH1 0x24 PUSH0 REVERT JUMPDEST POP MOD SWAP1 JUMP JUMPDEST PUSH0 PUSH1 0x20 DUP3 DUP5 SUB SLT ISZERO PUSH2 0x17F8 JUMPI PUSH0 DUP1 REVERT JUMPDEST POP MLOAD SWAP2 SWAP1 POP JUMP JUMPDEST PUSH0 PUSH1 0x20 DUP1 DUP4 DUP6 SUB SLT ISZERO PUSH2 0x1810 JUMPI PUSH0 DUP1 REVERT JUMPDEST DUP3 MLOAD PUSH8 0xFFFFFFFFFFFFFFFF DUP1 DUP3 GT ISZERO PUSH2 0x1827 JUMPI PUSH0 DUP1 REVERT JUMPDEST DUP2 DUP6 ADD SWAP2 POP DUP6 PUSH1 0x1F DUP4 ADD SLT PUSH2 0x183A JUMPI PUSH0 DUP1 REVERT JUMPDEST DUP2 MLOAD DUP2 DUP2 GT ISZERO PUSH2 0x184C JUMPI PUSH2 0x184C PUSH2 0x16A8 JUMP JUMPDEST DUP1 PUSH1 0x5 SHL PUSH1 0x40 MLOAD PUSH1 0x1F NOT PUSH1 0x3F DUP4 ADD AND DUP2 ADD DUP2 DUP2 LT DUP6 DUP3 GT OR ISZERO PUSH2 0x1871 JUMPI PUSH2 0x1871 PUSH2 0x16A8 JUMP JUMPDEST PUSH1 0x40 MSTORE SWAP2 DUP3 MSTORE DUP5 DUP3 ADD SWAP3 POP DUP4 DUP2 ADD DUP6 ADD SWAP2 DUP9 DUP4 GT ISZERO PUSH2 0x188E JUMPI PUSH0 DUP1 REVERT JUMPDEST SWAP4 DUP6 ADD SWAP4 JUMPDEST DUP3 DUP6 LT ISZERO PUSH2 0x18AC JUMPI DUP5 MLOAD DUP5 MSTORE SWAP4 DUP6 ADD SWAP4 SWAP3 DUP6 ADD SWAP3 PUSH2 0x1893 JUMP JUMPDEST SWAP9 SWAP8 POP POP POP POP POP POP POP POP JUMP JUMPDEST DUP1 DUP3 ADD DUP1 DUP3 GT ISZERO PUSH2 0x16A2 JUMPI PUSH2 0x16A2 PUSH2 0x1659 JUMP JUMPDEST PUSH1 0x60 DUP2 ADD PUSH2 0x18D9 DUP3 DUP7 PUSH2 0x1706 JUMP JUMPDEST PUSH1 0x20 DUP3 ADD SWAP4 SWAP1 SWAP4 MSTORE PUSH1 0x40 ADD MSTORE SWAP2 SWAP1 POP JUMP INVALID SWAP12 PUSH24 0x9B17422D0DF92223018B32B4D1FA46E071723D6817E2486D STOP EXTCODESIZE 0xEC 0xC5 PUSH0 STOP LOG2 PUSH5 0x6970667358 0x22 SLT KECCAK256 0xE8 LOG0 0xDF BLOBHASH 0xE5 PUSH6 0x4B9C9AA0ECC1 0x25 0x2F SHR KECCAK256 0xC9 SWAP16 SWAP8 0xBE CALLVALUE RETURNDATASIZE 0x23 0xDF MULMOD CALL RETURNDATACOPY JUMP 0xAE PUSH10 0x863D64736F6C63430008 XOR STOP CALLER "},"methodIdentifiers":{"effectiveMythicThreshold(address)":"e6c4b9d4","getPityCount(address)":"ce545389","nft()":"47ccca02","openPremiumPack()":"405a141b","openStandardPack()":"65405aca","openUltraPack()":"4fd959e3","owner()":"8da5cb5b","packConfigs(uint8)":"f3996390","packsWithoutMythic(address)":"552a5d11","registry()":"7b103999","renounceOwnership()":"715018a6","setPackPrice(uint8,uint256)":"8c730a5a","transferOwnership(address)":"f2fde38b","withdraw()":"3ccfd60b"}}}}}