{
  "_format": "hh-sol-artifact-1",
  "contractName": "GachaPack",
  "sourceName": "contracts/GachaPack.sol",
  "abi": [
    {
      "inputs": [
        {
          "internalType": "address",
          "name": "_nft",
          "type": "address"
        },
        {
          "internalType": "address",
          "name": "_registry",
          "type": "address"
        }
      ],
      "stateMutability": "nonpayable",
      "type": "constructor"
    },
    {
      "inputs": [
        {
          "internalType": "uint256",
          "name": "sent",
          "type": "uint256"
        },
        {
          "internalType": "uint256",
          "name": "required",
          "type": "uint256"
        }
      ],
      "name": "InsufficientPayment",
      "type": "error"
    },
    {
      "inputs": [
        {
          "internalType": "enum CardRegistry.Rarity",
          "name": "rarity",
          "type": "uint8"
        }
      ],
      "name": "NoCardsAvailable",
      "type": "error"
    },
    {
      "inputs": [
        {
          "internalType": "address",
          "name": "owner",
          "type": "address"
        }
      ],
      "name": "OwnableInvalidOwner",
      "type": "error"
    },
    {
      "inputs": [
        {
          "internalType": "address",
          "name": "account",
          "type": "address"
        }
      ],
      "name": "OwnableUnauthorizedAccount",
      "type": "error"
    },
    {
      "inputs": [],
      "name": "ReentrancyGuardReentrantCall",
      "type": "error"
    },
    {
      "anonymous": false,
      "inputs": [
        {
          "indexed": true,
          "internalType": "address",
          "name": "player",
          "type": "address"
        },
        {
          "indexed": true,
          "internalType": "uint256",
          "name": "tokenId",
          "type": "uint256"
        },
        {
          "indexed": false,
          "internalType": "enum CardRegistry.Rarity",
          "name": "rarity",
          "type": "uint8"
        }
      ],
      "name": "CardMinted",
      "type": "event"
    },
    {
      "anonymous": false,
      "inputs": [
        {
          "indexed": true,
          "internalType": "address",
          "name": "previousOwner",
          "type": "address"
        },
        {
          "indexed": true,
          "internalType": "address",
          "name": "newOwner",
          "type": "address"
        }
      ],
      "name": "OwnershipTransferred",
      "type": "event"
    },
    {
      "anonymous": false,
      "inputs": [
        {
          "indexed": true,
          "internalType": "address",
          "name": "player",
          "type": "address"
        },
        {
          "indexed": false,
          "internalType": "enum GachaPack.PackType",
          "name": "packType",
          "type": "uint8"
        },
        {
          "indexed": false,
          "internalType": "uint256[]",
          "name": "tokenIds",
          "type": "uint256[]"
        }
      ],
      "name": "PackOpened",
      "type": "event"
    },
    {
      "anonymous": false,
      "inputs": [
        {
          "indexed": false,
          "internalType": "enum GachaPack.PackType",
          "name": "packType",
          "type": "uint8"
        },
        {
          "indexed": false,
          "internalType": "uint256",
          "name": "newPrice",
          "type": "uint256"
        }
      ],
      "name": "PackPriceUpdated",
      "type": "event"
    },
    {
      "inputs": [
        {
          "internalType": "address",
          "name": "player",
          "type": "address"
        }
      ],
      "name": "effectiveMythicThreshold",
      "outputs": [
        {
          "internalType": "uint256",
          "name": "",
          "type": "uint256"
        }
      ],
      "stateMutability": "view",
      "type": "function"
    },
    {
      "inputs": [
        {
          "internalType": "address",
          "name": "player",
          "type": "address"
        }
      ],
      "name": "getPityCount",
      "outputs": [
        {
          "internalType": "uint256",
          "name": "",
          "type": "uint256"
        }
      ],
      "stateMutability": "view",
      "type": "function"
    },
    {
      "inputs": [],
      "name": "nft",
      "outputs": [
        {
          "internalType": "contract GachaNFT",
          "name": "",
          "type": "address"
        }
      ],
      "stateMutability": "view",
      "type": "function"
    },
    {
      "inputs": [],
      "name": "openPremiumPack",
      "outputs": [],
      "stateMutability": "payable",
      "type": "function"
    },
    {
      "inputs": [],
      "name": "openStandardPack",
      "outputs": [],
      "stateMutability": "payable",
      "type": "function"
    },
    {
      "inputs": [],
      "name": "openUltraPack",
      "outputs": [],
      "stateMutability": "payable",
      "type": "function"
    },
    {
      "inputs": [],
      "name": "owner",
      "outputs": [
        {
          "internalType": "address",
          "name": "",
          "type": "address"
        }
      ],
      "stateMutability": "view",
      "type": "function"
    },
    {
      "inputs": [
        {
          "internalType": "enum GachaPack.PackType",
          "name": "",
          "type": "uint8"
        }
      ],
      "name": "packConfigs",
      "outputs": [
        {
          "internalType": "uint256",
          "name": "price",
          "type": "uint256"
        },
        {
          "internalType": "uint8",
          "name": "size",
          "type": "uint8"
        },
        {
          "internalType": "uint8",
          "name": "minRare",
          "type": "uint8"
        },
        {
          "internalType": "bool",
          "name": "minLegendary",
          "type": "bool"
        }
      ],
      "stateMutability": "view",
      "type": "function"
    },
    {
      "inputs": [
        {
          "internalType": "address",
          "name": "",
          "type": "address"
        }
      ],
      "name": "packsWithoutMythic",
      "outputs": [
        {
          "internalType": "uint256",
          "name": "",
          "type": "uint256"
        }
      ],
      "stateMutability": "view",
      "type": "function"
    },
    {
      "inputs": [],
      "name": "registry",
      "outputs": [
        {
          "internalType": "contract CardRegistry",
          "name": "",
          "type": "address"
        }
      ],
      "stateMutability": "view",
      "type": "function"
    },
    {
      "inputs": [],
      "name": "renounceOwnership",
      "outputs": [],
      "stateMutability": "nonpayable",
      "type": "function"
    },
    {
      "inputs": [
        {
          "internalType": "enum GachaPack.PackType",
          "name": "packType",
          "type": "uint8"
        },
        {
          "internalType": "uint256",
          "name": "newPrice",
          "type": "uint256"
        }
      ],
      "name": "setPackPrice",
      "outputs": [],
      "stateMutability": "nonpayable",
      "type": "function"
    },
    {
      "inputs": [
        {
          "internalType": "address",
          "name": "newOwner",
          "type": "address"
        }
      ],
      "name": "transferOwnership",
      "outputs": [],
      "stateMutability": "nonpayable",
      "type": "function"
    },
    {
      "inputs": [],
      "name": "withdraw",
      "outputs": [],
      "stateMutability": "nonpayable",
      "type": "function"
    },
    {
      "stateMutability": "payable",
      "type": "receive"
    }
  ],
  "bytecode": "0x60c060405234801562000010575f80fd5b5060405162001cd538038062001cd58339810160408190526200003391620002f0565b33806200005957604051631e4fbdf760e01b81525f600482015260240160405180910390fd5b620000648162000285565b5060017f9b779b17422d0df92223018b32b4d1fa46e071723d6817e2486d003becc55f008190556001600160a01b0392831660809081529190921660a05260408051808301825266038d7ea4c680008152600a60208083019182528284018681525f606080860182815282805289855295517fa6eef7e35abe7026729641147f7915573c7e97b47efa546f5f6e3230263bcb495593517fa6eef7e35abe7026729641147f7915573c7e97b47efa546f5f6e3230263bcb4a80549351965160ff92831661ffff199586161761010098841689021762ff000019908116620100009215158302179092558851808b018a526606651728988000815260148188019081526002828c01818152838b018881528f89528f8b5293517fcc69885fda6bcc1a4ace058b4a62bf5e179ea78fd58a1ccd71c22cc9b688792f5591517fcc69885fda6bcc1a4ace058b4a62bf5e179ea78fd58a1ccd71c22cc9b6887930805493519451918816938a16939093179387168c02939093178516921515840292909217905589519a8b018a526608e1bc9bf040008b52601e8b880190815260039a8c019a8b52978b018c815294529990945296517fd9d16d34ffb15ba3a3d852f0d403e2ce1d691fb54de27ac87cd2f993f3ec330f5592517fd9d16d34ffb15ba3a3d852f0d403e2ce1d691fb54de27ac87cd2f993f3ec33108054965194511515909802938716909402941692909416919091179190911790911617905562000326565b5f80546001600160a01b038381166001600160a01b0319831681178455604051919092169283917f8be0079c531659141344cd1fd0a4f28419497f9722a3daafe3b4186f6b6457e09190a35050565b80516001600160a01b0381168114620002eb575f80fd5b919050565b5f806040838503121562000302575f80fd5b6200030d83620002d4565b91506200031d60208401620002d4565b90509250929050565b60805160a051611940620003955f395f81816101c30152818161079b0152818161088e01528181610aa80152818161102101528181611109015281816111ab015261143c01525f818161011601528181610b81015281816112790152818161137601526114d701526119405ff3fe6080604052600436106100dc575f3560e01c80637b1039991161007c578063ce54538911610057578063ce54538914610220578063e6c4b9d414610254578063f2fde38b14610273578063f399639014610292575f80fd5b80637b103999146101b25780638c730a5a146101e55780638da5cb5b14610204575f80fd5b80634fd959e3116100b75780634fd959e314610155578063552a5d111461015d57806365405aca14610196578063715018a61461019e575f80fd5b80633ccfd60b146100e7578063405a141b146100fd57806347ccca0214610105575f80fd5b366100e357005b5f80fd5b3480156100f2575f80fd5b506100fb610306565b005b6100fb610423565b348015610110575f80fd5b506101387f000000000000000000000000000000000000000000000000000000000000000081565b6040516001600160a01b0390911681526020015b60405180910390f35b6100fb61044b565b348015610168575f80fd5b5061018861017736600461159c565b60026020525f908152604090205481565b60405190815260200161014c565b6100fb61045d565b3480156101a9575f80fd5b506100fb61046e565b3480156101bd575f80fd5b506101387f000000000000000000000000000000000000000000000000000000000000000081565b3480156101f0575f80fd5b506100fb6101ff3660046115d5565b61047f565b34801561020f575f80fd5b505f546001600160a01b0316610138565b34801561022b575f80fd5b5061018861023a36600461159c565b6001600160a01b03165f9081526002602052604090205490565b34801561025f575f80fd5b5061018861026e36600461159c565b6104fe565b34801561027e575f80fd5b506100fb61028d36600461159c565b610540565b34801561029d575f80fd5b506102da6102ac3660046115fd565b600160208190525f9182526040909120805491015460ff808216916101008104821691620100009091041684565b60405161014c949392919093845260ff9283166020850152911660408301521515606082015260800190565b61030e61057d565b6103166105a9565b47806103695760405162461bcd60e51b815260206004820152601e60248201527f47616368615061636b3a206e6f7468696e6720746f207769746864726177000060448201526064015b60405180910390fd5b5f80546040516001600160a01b039091169083908381818185875af1925050503d805f81146103b3576040519150601f19603f3d011682016040523d82523d5f602084013e6103b8565b606091505b50509050806104095760405162461bcd60e51b815260206004820152601a60248201527f47616368615061636b3a207769746864726177206661696c65640000000000006044820152606401610360565b505061042160015f805160206118eb83398151915255565b565b61042b6105a9565b61043560016105c4565b61042160015f805160206118eb83398151915255565b6104536105a9565b61043560026105c4565b6104656105a9565b6104355f6105c4565b61047661057d565b6104215f610ce3565b61048761057d565b8060015f84600281111561049d5761049d611616565b60028111156104ae576104ae611616565b81526020019081526020015f205f01819055507f637a10028cb48cb527170900d1ff6ce52846de091982bbb51a21df24c5dab66582826040516104f292919061163e565b60405180910390a15050565b5f8061050983610d32565b90506105196126fc61271061166d565b61ffff16811061052d57506126fc92915050565b610539816126fc61168f565b9392505050565b61054861057d565b6001600160a01b03811661057157604051631e4fbdf760e01b81525f6004820152602401610360565b61057a81610ce3565b50565b5f546001600160a01b031633146104215760405163118cdaa760e01b8152336004820152602401610360565b6105b1610d71565b60025f805160206118eb83398151915255565b5f60015f8360028111156105da576105da611616565b60028111156105eb576105eb611616565b815260208082019290925260409081015f208151608081018352815480825260019092015460ff8082169583019590955261010081048516938201939093526201000090920490921615156060820152915034101561066957805160405163b99e2ab760e01b81523460048201526024810191909152604401610360565b5f61067560014361168f565b60408051914060208301526bffffffffffffffffffffffff193360601b1690820152426054820152446074820152609401604051602081830303815290604052805190602001205f1c90505f6106ca33610d32565b90505f836020015160ff1667ffffffffffffffff8111156106ed576106ed6116a8565b604051908082528060200260200182016040528015610716578160200160208202803683370190505b509050610721610da0565b7f4739ad6010ed047849ba10e67d99de2bad0c45471b38f28e03ecc0ede12639ac5f80805b876040015160ff1681101561083d575f6107636001898588610e0e565b905080868481518110610778576107786116bc565b60209081029190910101526003604051634875869760e01b8152600481018390527f00000000000000000000000000000000000000000000000000000000000000006001600160a01b031690634875869790602401602060405180830381865afa1580156107e8573d5f803e3d5ffd5b505050506040513d601f19601f8201168201806040525081019061080c91906116d0565b600381111561081d5761081d611616565b0361082757600193505b82610831816116ee565b93505050600101610746565b50866060015115610929575f6108566002888487610e0e565b90508085838151811061086b5761086b6116bc565b60209081029190910101526003604051634875869760e01b8152600481018390527f00000000000000000000000000000000000000000000000000000000000000006001600160a01b031690634875869790602401602060405180830381865afa1580156108db573d5f803e3d5ffd5b505050506040513d601f19601f820116820180604052508101906108ff91906116d0565b600381111561091057610910611616565b0361091a57600192505b81610924816116ee565b925050505b805b876020015160ff168110156109a8575f610946888389610f20565b905061095181610fed565b90505f610960828a8589611105565b905080878481518110610975576109756116bc565b6020908102919091010152600382600381111561099457610994611616565b0361099e57600194505b505060010161092b565b5081156109c357335f908152600260205260408120556109e3565b335f9081526002602052604081208054916109dd836116ee565b91905055505b5f876020015160ff1667ffffffffffffffff811115610a0457610a046116a8565b604051908082528060200260200182016040528015610a2d578160200160208202803683370190505b5090505f5b886020015160ff16811015610b69576001828281518110610a5557610a556116bc565b602002602001018181525050858181518110610a7357610a736116bc565b6020026020010151336001600160a01b03167f140538f7003346d4628961ef82b7128021c494a8f1881ca2a8f24d8e743a4f057f00000000000000000000000000000000000000000000000000000000000000006001600160a01b031663487586978a8681518110610ae757610ae76116bc565b60200260200101516040518263ffffffff1660e01b8152600401610b0d91815260200190565b602060405180830381865afa158015610b28573d5f803e3d5ffd5b505050506040513d601f19601f82011682018060405250810190610b4c91906116d0565b604051610b599190611716565b60405180910390a3600101610a32565b50604051630dfe246d60e01b81526001600160a01b037f00000000000000000000000000000000000000000000000000000000000000001690630dfe246d90610bba9033908990869060040161175e565b5f604051808303815f87803b158015610bd1575f80fd5b505af1158015610be3573d5f803e3d5ffd5b50505050336001600160a01b03167f8ec9a35d54af30762858796fa12f9026597e6e747373346e2d9e7a78d9f1252b8a87604051610c22929190611793565b60405180910390a287515f90610c38903461168f565b90508015610cd7576040515f90339083908381818185875af1925050503d805f8114610c7f576040519150601f19603f3d011682016040523d82523d5f602084013e610c84565b606091505b5050905080610cd55760405162461bcd60e51b815260206004820152601860248201527f47616368615061636b3a20726566756e64206661696c656400000000000000006044820152606401610360565b505b50505050505050505050565b5f80546001600160a01b038381166001600160a01b0319831681178455604051919092169283917f8be0079c531659141344cd1fd0a4f28419497f9722a3daafe3b4186f6b6457e09190a35050565b6001600160a01b0381165f9081526002602052604081205460328111610d5a57505f92915050565b6014610d6760328361168f565b61053991906117b2565b5f805160206118eb8339815191525460020361042157604051633ee5aeb560e01b815260040160405180910390fd5b7f4739ad6010ed047849ba10e67d99de2bad0c45471b38f28e03ecc0ede12639ac60015b60308111610e0a575f8181526020839052604090205460ff1615610df8575f818152602083905260409020805460ff191690555b80610e02816116ee565b915050610dc4565b5050565b5f806127108585604051602001610e4292919091825260208201526919dd585c985b9d19595960b21b6040820152604a0190565b604051602081830303815290604052805190602001205f1c610e6491906117c9565b9050856001876003811115610e7b57610e7b611616565b03610ea3576126fc8210610e9157506003610ec9565b6125808210610e9e575060025b610ec9565b6002876003811115610eb757610eb7611616565b03610ec9576126fc8210610ec9575060035b610ed281610fed565b9050866003811115610ee657610ee6611616565b60ff16816003811115610efb57610efb611616565b60ff161015610f075750855b610f1381878787611105565b925050505b949350505050565b5f806127108585604051602001610f5092919091825260208201526572617269747960d01b604082015260460190565b604051602081830303815290604052805190602001205f1c610f7291906117c9565b90505f610f836126fc61271061166d565b61ffff16841015610f9f57610f9a846126fc61168f565b610fa3565b6126fc5b9050612008821015610fb9575f92505050610539565b612580821015610fce57600192505050610539565b80821015610fe157600292505050610539565b50600395945050505050565b5f600382600381111561100257611002611616565b14801561109857506040516393292fa360e01b81526001600160a01b037f000000000000000000000000000000000000000000000000000000000000000016906393292fa39061105790600390600401611716565b602060405180830381865afa158015611072573d5f803e3d5ffd5b505050506040513d601f19601f8201168201806040525081019061109691906117e8565b155b156110a257600291505b60028260038111156110b6576110b6611616565b1480156110c857506110c86002611438565b156110d257600191505b60018260038111156110e6576110e6611616565b1480156110f857506110f86001611438565b15611101575f91505b5090565b5f807f00000000000000000000000000000000000000000000000000000000000000006001600160a01b0316632fbfbe84876040518263ffffffff1660e01b81526004016111539190611716565b5f60405180830381865afa15801561116d573d5f803e3d5ffd5b505050506040513d5f823e601f3d908101601f1916820160405261119491908101906117ff565b90505f5b8151811015611318576001600160a01b037f000000000000000000000000000000000000000000000000000000000000000016633fdd1c9088886111de856103e86117b2565b6111e8908a6118b8565b6040518463ffffffff1660e01b8152600401611206939291906118cb565b602060405180830381865afa158015611221573d5f803e3d5ffd5b505050506040513d601f19601f8201168201806040525081019061124591906117e8565b5f8181526020869052604090205490935060ff161580156112ec57506040516323fed20d60e11b8152600481018490525f907f00000000000000000000000000000000000000000000000000000000000000006001600160a01b0316906347fda41a90602401602060405180830381865afa1580156112c6573d5f803e3d5ffd5b505050506040513d601f19601f820116820180604052508101906112ea91906117e8565b115b156113105750505f818152602083905260409020805460ff19166001179055610f18565b600101611198565b505f5b815181101561141557818181518110611336576113366116bc565b6020908102919091018101515f8181529186905260409091205490935060ff161580156113e957506040516323fed20d60e11b8152600481018490525f907f00000000000000000000000000000000000000000000000000000000000000006001600160a01b0316906347fda41a90602401602060405180830381865afa1580156113c3573d5f803e3d5ffd5b505050506040513d601f19601f820116820180604052508101906113e791906117e8565b115b1561140d5750505f818152602083905260409020805460ff19166001179055610f18565b60010161131b565b5061142e5f86611428876201869f6118b8565b86611105565b9695505050505050565b5f807f00000000000000000000000000000000000000000000000000000000000000006001600160a01b0316632fbfbe84846040518263ffffffff1660e01b81526004016114869190611716565b5f60405180830381865afa1580156114a0573d5f803e3d5ffd5b505050506040513d5f823e601f3d908101601f191682016040526114c791908101906117ff565b90505f5b8151811015611592575f7f00000000000000000000000000000000000000000000000000000000000000006001600160a01b03166347fda41a848481518110611516576115166116bc565b60200260200101516040518263ffffffff1660e01b815260040161153c91815260200190565b602060405180830381865afa158015611557573d5f803e3d5ffd5b505050506040513d601f19601f8201168201806040525081019061157b91906117e8565b111561158a57505f9392505050565b6001016114cb565b5051151592915050565b5f602082840312156115ac575f80fd5b81356001600160a01b0381168114610539575f80fd5b8035600381106115d0575f80fd5b919050565b5f80604083850312156115e6575f80fd5b6115ef836115c2565b946020939093013593505050565b5f6020828403121561160d575f80fd5b610539826115c2565b634e487b7160e01b5f52602160045260245ffd5b6003811061163a5761163a611616565b9052565b6040810161164c828561162a565b8260208301529392505050565b634e487b7160e01b5f52601160045260245ffd5b61ffff82811682821603908082111561168857611688611659565b5092915050565b818103818111156116a2576116a2611659565b92915050565b634e487b7160e01b5f52604160045260245ffd5b634e487b7160e01b5f52603260045260245ffd5b5f602082840312156116e0575f80fd5b815160048110610539575f80fd5b5f600182016116ff576116ff611659565b5060010190565b6004811061163a5761163a611616565b602081016116a28284611706565b5f815180845260208085019450602084015f5b8381101561175357815187529582019590820190600101611737565b509495945050505050565b6001600160a01b03841681526060602082018190525f9061178190830185611724565b828103604084015261142e8185611724565b61179d818461162a565b604060208201525f610f186040830184611724565b80820281158282048414176116a2576116a2611659565b5f826117e357634e487b7160e01b5f52601260045260245ffd5b500690565b5f602082840312156117f8575f80fd5b5051919050565b5f6020808385031215611810575f80fd5b825167ffffffffffffffff80821115611827575f80fd5b818501915085601f83011261183a575f80fd5b81518181111561184c5761184c6116a8565b8060051b604051601f19603f83011681018181108582111715611871576118716116a8565b60405291825284820192508381018501918883111561188e575f80fd5b938501935b828510156118ac57845184529385019392850192611893565b98975050505050505050565b808201808211156116a2576116a2611659565b606081016118d98286611706565b60208201939093526040015291905056fe9b779b17422d0df92223018b32b4d1fa46e071723d6817e2486d003becc55f00a2646970667358221220e8a0df49e5654b9c9aa0ecc1252f1c20c99f97be343d23df09f13e56ae69863d64736f6c63430008180033",
  "linkReferences": {},
  "deployedLinkReferences": {}
}